{"abi":[{"type":"constructor","inputs":[{"name":"_protocolFee","type":"uint256","internalType":"uint256"},{"name":"_minimumFrontendFee","type":"uint256","internalType":"uint256"},{"name":"_owner","type":"address","internalType":"address"},{"name":"_pointsFactory","type":"address","internalType":"address"}],"stateMutability":"payable"},{"type":"function","name":"POINTS_FACTORY","inputs":[],"outputs":[{"name":"","type":"address","internalType":"address"}],"stateMutability":"view"},{"type":"function","name":"cancelAPOffer","inputs":[{"name":"offerHash","type":"bytes32","internalType":"bytes32"}],"outputs":[],"stateMutability":"payable"},{"type":"function","name":"cancelIPOffer","inputs":[{"name":"offerHash","type":"bytes32","internalType":"bytes32"}],"outputs":[],"stateMutability":"payable"},{"type":"function","name":"claim","inputs":[{"name":"marketHash","type":"bytes32","internalType":"bytes32"},{"name":"offerHash","type":"bytes32","internalType":"bytes32"},{"name":"wasIPOffer","type":"bool","internalType":"bool"},{"name":"oanSignature","type":"bytes","internalType":"bytes"}],"outputs":[],"stateMutability":"payable"},{"type":"function","name":"claimFees","inputs":[{"name":"incentiveToken","type":"address","internalType":"address"},{"name":"to","type":"address","internalType":"address"}],"outputs":[],"stateMutability":"payable"},{"type":"function","name":"createAPOffer","inputs":[{"name":"targetMarketHash","type":"bytes32","internalType":"bytes32"},{"name":"expiry","type":"uint256","internalType":"uint256"},{"name":"stakeAmount","type":"uint256","internalType":"uint256"},{"name":"fundingVault","type":"address","internalType":"address"},{"name":"timeToAct","type":"uint256","internalType":"uint256"},{"name":"verificationScriptParams","type":"bytes","internalType":"bytes"},{"name":"incentivesRequested","type":"address[]","internalType":"address[]"},{"name":"incentiveAmountsRequested","type":"uint256[]","internalType":"uint256[]"}],"outputs":[{"name":"offerHash","type":"bytes32","internalType":"bytes32"}],"stateMutability":"payable"},{"type":"function","name":"createIPOffer","inputs":[{"name":"targetMarketHash","type":"bytes32","internalType":"bytes32"},{"name":"stakeAmount","type":"uint256","internalType":"uint256"},{"name":"verificationScriptParams","type":"bytes","internalType":"bytes"},{"name":"expiry","type":"uint256","internalType":"uint256"},{"name":"timeToAct","type":"uint256","internalType":"uint256"},{"name":"incentivesOffered","type":"address[]","internalType":"address[]"},{"name":"incentiveAmountsPaid","type":"uint256[]","internalType":"uint256[]"}],"outputs":[{"name":"offerHash","type":"bytes32","internalType":"bytes32"}],"stateMutability":"payable"},{"type":"function","name":"createMarket","inputs":[{"name":"stakingToken","type":"address","internalType":"contract ERC20"},{"name":"frontendFee","type":"uint256","internalType":"uint256"},{"name":"ipfsCID","type":"bytes","internalType":"bytes"},{"name":"oanSigningAddress","type":"address","internalType":"address"}],"outputs":[{"name":"marketHash","type":"bytes32","internalType":"bytes32"}],"stateMutability":"payable"},{"type":"function","name":"feeClaimantToTokenToAmount","inputs":[{"name":"","type":"address","internalType":"address"},{"name":"","type":"address","internalType":"address"}],"outputs":[{"name":"","type":"uint256","internalType":"uint256"}],"stateMutability":"view"},{"type":"function","name":"fillAPOffer","inputs":[{"name":"offerHash","type":"bytes32","internalType":"bytes32"},{"name":"frontendFeeRecipient","type":"address","internalType":"address"}],"outputs":[],"stateMutability":"nonpayable"},{"type":"function","name":"fillIPOffer","inputs":[{"name":"offerHash","type":"bytes32","internalType":"bytes32"},{"name":"fundingVault","type":"address","internalType":"address"},{"name":"frontendFeeRecipient","type":"address","internalType":"address"}],"outputs":[],"stateMutability":"nonpayable"},{"type":"function","name":"getAPOfferHash","inputs":[{"name":"offerID","type":"uint256","internalType":"uint256"},{"name":"targetMarketHash","type":"bytes32","internalType":"bytes32"},{"name":"ap","type":"address","internalType":"address"},{"name":"expiry","type":"uint256","internalType":"uint256"},{"name":"stakeAmount","type":"uint256","internalType":"uint256"},{"name":"verificationScriptParams","type":"bytes","internalType":"bytes"},{"name":"incentivesRequested","type":"address[]","internalType":"address[]"},{"name":"incentiveAmountsRequested","type":"uint256[]","internalType":"uint256[]"}],"outputs":[{"name":"","type":"bytes32","internalType":"bytes32"}],"stateMutability":"pure"},{"type":"function","name":"getIPOfferHash","inputs":[{"name":"offerID","type":"uint256","internalType":"uint256"},{"name":"targetMarketHash","type":"bytes32","internalType":"bytes32"},{"name":"ip","type":"address","internalType":"address"},{"name":"expiry","type":"uint256","internalType":"uint256"},{"name":"stakeAmount","type":"uint256","internalType":"uint256"},{"name":"verificationScriptParams","type":"bytes","internalType":"bytes"},{"name":"incentivesOffered","type":"address[]","internalType":"address[]"},{"name":"incentiveAmountsOffered","type":"uint256[]","internalType":"uint256[]"}],"outputs":[{"name":"","type":"bytes32","internalType":"bytes32"}],"stateMutability":"pure"},{"type":"function","name":"getMarketHash","inputs":[{"name":"market","type":"tuple","internalType":"struct OffchainActionMarketHub.OffchainActionMarket","components":[{"name":"stakingToken","type":"address","internalType":"contract ERC20"},{"name":"marketID","type":"uint256","internalType":"uint256"},{"name":"frontendFee","type":"uint256","internalType":"uint256"},{"name":"ipfsCID","type":"bytes","internalType":"bytes"},{"name":"oanSigningAddress","type":"address","internalType":"address"}]}],"outputs":[{"name":"","type":"bytes32","internalType":"bytes32"}],"stateMutability":"pure"},{"type":"function","name":"marketHashToOffchainActionMarket","inputs":[{"name":"","type":"bytes32","internalType":"bytes32"}],"outputs":[{"name":"stakingToken","type":"address","internalType":"contract ERC20"},{"name":"marketID","type":"uint256","internalType":"uint256"},{"name":"frontendFee","type":"uint256","internalType":"uint256"},{"name":"ipfsCID","type":"bytes","internalType":"bytes"},{"name":"oanSigningAddress","type":"address","internalType":"address"}],"stateMutability":"view"},{"type":"function","name":"minimumFrontendFee","inputs":[],"outputs":[{"name":"","type":"uint256","internalType":"uint256"}],"stateMutability":"view"},{"type":"function","name":"numAPOffers","inputs":[],"outputs":[{"name":"","type":"uint256","internalType":"uint256"}],"stateMutability":"view"},{"type":"function","name":"numIPOffers","inputs":[],"outputs":[{"name":"","type":"uint256","internalType":"uint256"}],"stateMutability":"view"},{"type":"function","name":"numMarkets","inputs":[],"outputs":[{"name":"","type":"uint256","internalType":"uint256"}],"stateMutability":"view"},{"type":"function","name":"offerHashToAPOffer","inputs":[{"name":"","type":"bytes32","internalType":"bytes32"}],"outputs":[{"name":"offerID","type":"uint256","internalType":"uint256"},{"name":"targetMarketHash","type":"bytes32","internalType":"bytes32"},{"name":"fundingVault","type":"address","internalType":"address"},{"name":"ap","type":"address","internalType":"address"},{"name":"ipFiller","type":"address","internalType":"address"},{"name":"stakeAmount","type":"uint256","internalType":"uint256"},{"name":"verificationScriptParams","type":"bytes","internalType":"bytes"},{"name":"expiry","type":"uint256","internalType":"uint256"},{"name":"timeToAct","type":"uint256","internalType":"uint256"},{"name":"dueDate","type":"uint256","internalType":"uint256"},{"name":"frontendFeeRecipient","type":"address","internalType":"address"}],"stateMutability":"view"},{"type":"function","name":"offerHashToIPOffer","inputs":[{"name":"","type":"bytes32","internalType":"bytes32"}],"outputs":[{"name":"offerID","type":"uint256","internalType":"uint256"},{"name":"targetMarketHash","type":"bytes32","internalType":"bytes32"},{"name":"ip","type":"address","internalType":"address"},{"name":"apFiller","type":"address","internalType":"address"},{"name":"stakeAmount","type":"uint256","internalType":"uint256"},{"name":"verificationScriptParams","type":"bytes","internalType":"bytes"},{"name":"expiry","type":"uint256","internalType":"uint256"},{"name":"timeToAct","type":"uint256","internalType":"uint256"},{"name":"dueDate","type":"uint256","internalType":"uint256"},{"name":"frontendFeeRecipient","type":"address","internalType":"address"}],"stateMutability":"view"},{"type":"function","name":"owner","inputs":[],"outputs":[{"name":"","type":"address","internalType":"address"}],"stateMutability":"view"},{"type":"function","name":"protocolFee","inputs":[],"outputs":[{"name":"","type":"uint256","internalType":"uint256"}],"stateMutability":"view"},{"type":"function","name":"protocolFeeClaimant","inputs":[],"outputs":[{"name":"","type":"address","internalType":"address"}],"stateMutability":"view"},{"type":"function","name":"setMinimumFrontendFee","inputs":[{"name":"_minimumFrontendFee","type":"uint256","internalType":"uint256"}],"outputs":[],"stateMutability":"payable"},{"type":"function","name":"setOffersPaused","inputs":[{"name":"_offersPaused","type":"bool","internalType":"bool"}],"outputs":[],"stateMutability":"nonpayable"},{"type":"function","name":"setProtocolFee","inputs":[{"name":"_protocolFee","type":"uint256","internalType":"uint256"}],"outputs":[],"stateMutability":"payable"},{"type":"function","name":"setProtocolFeeClaimant","inputs":[{"name":"_protocolFeeClaimant","type":"address","internalType":"address"}],"outputs":[],"stateMutability":"payable"},{"type":"function","name":"transferOwnership","inputs":[{"name":"newOwner","type":"address","internalType":"address"}],"outputs":[],"stateMutability":"nonpayable"},{"type":"event","name":"APOfferCancelled","inputs":[{"name":"offerID","type":"uint256","indexed":true,"internalType":"uint256"}],"anonymous":false},{"type":"event","name":"APOfferCreated","inputs":[{"name":"offerID","type":"uint256","indexed":true,"internalType":"uint256"},{"name":"offerHash","type":"bytes32","indexed":true,"internalType":"bytes32"},{"name":"marketHash","type":"bytes32","indexed":true,"internalType":"bytes32"},{"name":"fundingVault","type":"address","indexed":false,"internalType":"address"},{"name":"verificationScriptParams","type":"bytes","indexed":false,"internalType":"bytes"},{"name":"stakeAmount","type":"uint256","indexed":false,"internalType":"uint256"},{"name":"timeToAct","type":"uint256","indexed":false,"internalType":"uint256"},{"name":"incentiveAddresses","type":"address[]","indexed":false,"internalType":"address[]"},{"name":"incentiveAmounts","type":"uint256[]","indexed":false,"internalType":"uint256[]"},{"name":"expiry","type":"uint256","indexed":false,"internalType":"uint256"}],"anonymous":false},{"type":"event","name":"APOfferFilled","inputs":[{"name":"offerID","type":"uint256","indexed":true,"internalType":"uint256"},{"name":"ip","type":"address","indexed":true,"internalType":"address"},{"name":"dueDate","type":"uint256","indexed":false,"internalType":"uint256"},{"name":"incentiveAmounts","type":"uint256[]","indexed":false,"internalType":"uint256[]"},{"name":"protocolFeeAmounts","type":"uint256[]","indexed":false,"internalType":"uint256[]"},{"name":"frontendFeeAmounts","type":"uint256[]","indexed":false,"internalType":"uint256[]"}],"anonymous":false},{"type":"event","name":"ClaimedIncentive","inputs":[{"name":"ap","type":"address","indexed":true,"internalType":"address"},{"name":"incentive","type":"address","indexed":false,"internalType":"address"}],"anonymous":false},{"type":"event","name":"FeesClaimed","inputs":[{"name":"claimant","type":"address","indexed":true,"internalType":"address"},{"name":"incentive","type":"address","indexed":true,"internalType":"address"},{"name":"amount","type":"uint256","indexed":false,"internalType":"uint256"}],"anonymous":false},{"type":"event","name":"IPOfferCancelled","inputs":[{"name":"offerHash","type":"bytes32","indexed":true,"internalType":"bytes32"}],"anonymous":false},{"type":"event","name":"IPOfferCreated","inputs":[{"name":"offerID","type":"uint256","indexed":true,"internalType":"uint256"},{"name":"offerHash","type":"bytes32","indexed":true,"internalType":"bytes32"},{"name":"marketHash","type":"bytes32","indexed":true,"internalType":"bytes32"},{"name":"verificationScriptParams","type":"bytes","indexed":false,"internalType":"bytes"},{"name":"stakeAmount","type":"uint256","indexed":false,"internalType":"uint256"},{"name":"timeToAct","type":"uint256","indexed":false,"internalType":"uint256"},{"name":"incentivesOffered","type":"address[]","indexed":false,"internalType":"address[]"},{"name":"incentiveAmounts","type":"uint256[]","indexed":false,"internalType":"uint256[]"},{"name":"protocolFeeAmounts","type":"uint256[]","indexed":false,"internalType":"uint256[]"},{"name":"frontendFeeAmounts","type":"uint256[]","indexed":false,"internalType":"uint256[]"},{"name":"expiry","type":"uint256","indexed":false,"internalType":"uint256"}],"anonymous":false},{"type":"event","name":"IPOfferFilled","inputs":[{"name":"offerHash","type":"bytes32","indexed":true,"internalType":"bytes32"},{"name":"ap","type":"address","indexed":true,"internalType":"address"},{"name":"dueDate","type":"uint256","indexed":false,"internalType":"uint256"}],"anonymous":false},{"type":"event","name":"MarketCreated","inputs":[{"name":"marketID","type":"uint256","indexed":true,"internalType":"uint256"},{"name":"marketHash","type":"bytes32","indexed":true,"internalType":"bytes32"},{"name":"frontendFee","type":"uint256","indexed":false,"internalType":"uint256"},{"name":"ipfsCID","type":"bytes","indexed":false,"internalType":"bytes"},{"name":"oanSigningAddress","type":"address","indexed":false,"internalType":"address"}],"anonymous":false},{"type":"event","name":"OwnershipTransferred","inputs":[{"name":"user","type":"address","indexed":true,"internalType":"address"},{"name":"newOwner","type":"address","indexed":true,"internalType":"address"}],"anonymous":false},{"type":"error","name":"ArrayLengthMismatch","inputs":[]},{"type":"error","name":"CannotFillZeroQuantityOffer","inputs":[]},{"type":"error","name":"CannotPlaceExpiredOffer","inputs":[]},{"type":"error","name":"CannotPlaceZeroQuantityOffer","inputs":[]},{"type":"error","name":"FrontendFeeTooLow","inputs":[]},{"type":"error","name":"InvalidMarketInputToken","inputs":[]},{"type":"error","name":"InvalidOanSignature","inputs":[]},{"type":"error","name":"InvalidPointsProgram","inputs":[]},{"type":"error","name":"MarketDoesNotExist","inputs":[]},{"type":"error","name":"MismatchedBaseAsset","inputs":[]},{"type":"error","name":"NoIncentivesPaidOnFill","inputs":[]},{"type":"error","name":"NonexistentOffer","inputs":[]},{"type":"error","name":"NotOwner","inputs":[]},{"type":"error","name":"OfferAlreadyFilled","inputs":[]},{"type":"error","name":"OfferCannotContainDuplicates","inputs":[]},{"type":"error","name":"OfferExpired","inputs":[]},{"type":"error","name":"OffersPaused","inputs":[]},{"type":"error","name":"ReentrancyGuardReentrantCall","inputs":[]},{"type":"error","name":"StakingFailed","inputs":[]},{"type":"error","name":"TokenDoesNotExist","inputs":[]},{"type":"error","name":"TotalFeeTooHigh","inputs":[]}],"bytecode":{"object":"0x60a0613cc480380390601f19601f83011683019183831060018060401b03841117610101578084926080946040528339810103126100fd578051602082015190610057606061005060408601610115565b9401610115565b9260018060a01b0316908160018060a01b03195f5416175f5560405193825f7f8be0079c531659141344cd1fd0a4f28419497f9722a3daafe3b4186f6b6457e08180a36001805560805260065560018060a01b03196007541617600755600855613b97908161012d8239608051818181610c5a01528181610cee0152818161133a015281816113c5015281816121e6015281816124f60152818161387b0152613a7d0152f35b5f80fd5b634e487b7160e01b5f52604160045260245ffd5b519060018060a01b038216820361012857565b5f80fdfe60a06040526004361015610012575b5f80fd5b5f3560e01c806305c2158214612498578063072fc9611461246a5780630cadba1a1461240e57806315a0c8bd1461234357806315a2fdee146122f257806319c7e2c514612212578063250b9ded146121c757806326e04f9d146121a25780632ae297e2146120035780632dbfa73514611f695780632dbfed341461194c5780633989f79914611631578063514c6d631461162c578063539ad07d14611065578063695aa12a14611001578063787dce3d14610fd257806380dd127a14610fad57806382ae91d114610f8857806389158eb0146106ee5780638da5cb5b146106c1578063ade82341146105ec578063b0e21e8a146105c7578063b4fc032a146105c2578063b8ccb1d814610539578063c124d08914610299578063ec1d465e14610229578063f2fde38b146101a9578063f3256c81146101845763fcd9664b0361000e576020600319360112610180576101766001600160a01b035f54163314612cd0565b6004356008555f80f35b5f80fd5b346101a5575f6003193601126101a1576020600854604051908152f35b5f80fd5b5f80fd5b346102255760206003193601126102215773ffffffffffffffffffffffffffffffffffffffff196101d8612704565b6001600160a01b035f54916101f08284163314612cd0565b1691829116175f55337f8be0079c531659141344cd1fd0a4f28419497f9722a3daafe3b4186f6b6457e05f80a35f80f35b5f80fd5b5f80fd5b346102955760206003193601126102915760043580151580910361028d5761025c6001600160a01b035f54163314612cd0565b60ff7fffffffffffffffffffffffffffffffffffffffffffffffffffffffffffffff00600554169116176005555f80f35b5f80fd5b5f80fd5b5f80fd5b34610535576060600319360112610531576004356102b561271e565b906044356001600160a01b038116810361052d57815f52600a60205260405f209060018201545f52600960205260405f206001600160a01b036002840154161561050557600683015480151590816104fb575b506104d35760038301906001600160a01b038254166104ab576001600160a01b0386168015159081610413575b506103eb576008956001600160a01b036103589254166004860154913390613507565b6001600160a01b03331673ffffffffffffffffffffffffffffffffffffffff198254161790556001600160a01b0360098301911673ffffffffffffffffffffffffffffffffffffffff198254161790556103b6600782015442612b63565b92839101556040519182527f2c6f6c43b5f2635558b31e1644ab72a4601325e95b65a407fa0afc821a4e665960203393a35f80f35b7f380b4009000000000000000000000000000000000000000000000000000000005f5260045ffd5b9050600460206001600160a01b0384541692604051928380927f38d52e0f0000000000000000000000000000000000000000000000000000000082525afa80156104a0576001600160a01b03915f91610471575b5016141587610335565b610493915060203d602011610499575b61048b81836127d2565b810190612d71565b89610467565b503d610481565b6040513d5f823e3d90fd5b7f2217dcea000000000000000000000000000000000000000000000000000000005f5260045ffd5b7f9cb13087000000000000000000000000000000000000000000000000000000005f5260045ffd5b9050421186610308565b7f614d3236000000000000000000000000000000000000000000000000000000005f5260045ffd5b5f80fd5b5f80fd5b5f80fd5b346105be5760206003193601126105ba576004355f52600960205260405f206001600160a01b038154166001820154916105b06002820154916001600160a01b03600461058860038401612809565b920154169260405195869586526020860152604085015260a0606085015260a08401906128c8565b9060808301520390f35b5f80fd5b5f80fd5b6129e2565b346105e8575f6003193601126105e4576020600654604051908152f35b5f80fd5b5f80fd5b346106bd5760206003193601126106b95760043567ffffffffffffffff81116106b55760a060031982360301126106b157604051610629816127a2565b61063582600401612752565b81526024820135602082015260448201356040820152606482013567ffffffffffffffff81116106ad57820190366023830112156106a957610697608460209461068c6106a1953690602460048201359101612abc565b606085015201612752565b6080820152613377565b604051908152f35b5f80fd5b5f80fd5b5f80fd5b5f80fd5b5f80fd5b5f80fd5b346106ea575f6003193601126106e65760206001600160a01b035f5416604051908152f35b5f80fd5b5f80fd5b60e0600319360112610f845760443567ffffffffffffffff8111610f805761071a9036906004016128ed565b60a43567ffffffffffffffff8111610f7c5761073a903690600401612927565b919060c43567ffffffffffffffff8111610f785761075c903690600401612927565b916107656133ea565b6004355f52600960205260405f20926001600160a01b0384541615610f5057606435151580610f45575b610f1d57808603610ef5576107a386612f3b565b6080526107af86612f3b565b926107b987612f3b565b945f915f5b898110610b21575050505050600354946107ea6080518284888b6024356064358d339060043590612e6c565b95865f52600a60205260405f209081556004356001820155600281016001600160a01b03331673ffffffffffffffffffffffffffffffffffffffff198254161790556024356004820155608435600782015567ffffffffffffffff8611610b0d576108658661085c600584015461276a565b60058401612d98565b5f86601f8111600114610aa25780610884925f91610a97575b50612b9c565b60058201555b6064356006820155600a810167ffffffffffffffff8311610a83576108af8382612c2f565b83905f5260205f20905f5b848110610a68575050506003810173ffffffffffffffffffffffffffffffffffffffff1981541690555f60088201556009810173ffffffffffffffffffffffffffffffffffffffff1981541690555f600b820190600d600c84019301905b8481106109ea5750505050937f6157a5c9356c90bd4242bf14d71836ea1c42539aa5e02b962f78b2379570e5696109c5602098956109b7610100966109a96109998c986109db9c6109776003549d8e9b6040519e8f8181520191612de7565b9160208d906024359101528c60406084359101528c6060818503910152612e07565b89810360808b0152608051612f94565b9088820360a08a0152612f94565b9086820360c0880152612f94565b9360643560e082015280600435950390a4612e4a565b60035560018055604051908152f35b80610a006109fb600193888a612d35565b612d59565b610a0c82608051612f6c565b516001600160a01b0382165f528560205260405f2055610a2c828a612f6c565b516001600160a01b0382165f528660205260405f20556001600160a01b03610a54838c612f6c565b5191165f528360205260405f205501610918565b6001906020610a7684612d59565b93019281850155016108ba565b634e487b7160e01b5f52604160045260245ffd5b90508a01358b61087e565b50600582015f5260205f20905f5b8a601f198a168210610af557505087601f19811610610adc575b5050600186811b01600582015561088a565b5f1960f88960031b161c19908a01351690558880610aca565b60018394602093948493013581550193019101610ab0565b634e487b7160e01b5f52604160045260245ffd5b6bffffffffffffffffffffffff19610b42610b3d838d8a612d35565b612d59565b9460601b166bffffffffffffffffffffffff198560601b161115610ecd5783610b6c828785612d35565b356002850154906006549081670de0b6b3a76400000180670de0b6b3a764000011610eb95783610b9b91612b63565b7812725dd1d243aba0e75fe645cc4873f9e65afe688c928e1f218211670de0b6b3a76400000215810215610eb557610c14868e81968f94610bef610c0e91670de0b6b3a7640000610bf899020498896134db565b968792896134db565b98899689610c0883608051612f6c565b52612f6c565b52612f6c565b526040517f679d11970000000000000000000000000000000000000000000000000000000081526001600160a01b03851660048201526020816024816001600160a01b037f0000000000000000000000000000000000000000000000000000000000000000165afa908115610eaa575f91610e7c575b505f14610e19575050506040517f1281cd000000000000000000000000000000000000000000000000000000000081526020816004816001600160a01b0386165afa8015610e0e576001600160a01b03915f91610de0575b50166001600160a01b037f0000000000000000000000000000000000000000000000000000000000000000161490811591610d4f575b50610d27576001905b016107be565b7fbfc5dab8000000000000000000000000000000000000000000000000000000005f5260045ffd5b6001600160a01b0391506020906024604051809481937fe91929b6000000000000000000000000000000000000000000000000000000008352336004840152165afa908115610dd5575f91610da7575b50158c610d18565b610dc8915060203d8111610dce575b610dc081836127d2565b810190612b43565b8c610d9f565b503d610db6565b6040513d5f823e3d90fd5b610e01915060203d8111610e07575b610df981836127d2565b810190612d71565b8e610ce2565b503d610def565b6040513d5f823e3d90fd5b83919294933b15610e5457600194610e37610e3c92610e4f95612b63565b612b63565b9030906001600160a01b03339116613973565b610d21565b7fceea21b6000000000000000000000000000000000000000000000000000000005f5260045ffd5b610e9d915060203d8111610ea3575b610e9581836127d2565b810190612b43565b5f610c8a565b503d610e8b565b6040513d5f823e3d90fd5b5f80fd5b634e487b7160e01b5f52601160045260245ffd5b7f84845e2d000000000000000000000000000000000000000000000000000000005f5260045ffd5b7fa24a13a6000000000000000000000000000000000000000000000000000000005f5260045ffd5b7f5b22d1a9000000000000000000000000000000000000000000000000000000005f5260045ffd5b50426064351061078f565b7fb0cfa447000000000000000000000000000000000000000000000000000000005f5260045ffd5b5f80fd5b5f80fd5b5f80fd5b5f80fd5b34610fa9575f600319360112610fa5576020600354604051908152f35b5f80fd5b5f80fd5b34610fce575f600319360112610fca576020600254604051908152f35b5f80fd5b5f80fd5b6020600319360112610ffd57610ff36001600160a01b035f54163314612cd0565b6004356006555f80f35b5f80fd5b608060031936011261106157604435801515810361105d576064359067ffffffffffffffff82116110595761103d6110519236906004016128ed565b916110466133ea565b602435600435612fcb565b600180555f80f35b5f80fd5b5f80fd5b5f80fd5b346116285760406003193601126116245761107e61271e565b6004355f52600b60205260405f206001600160a01b03600382015416156115fc57600781015480151590816115f2575b506115ca576001600160a01b036004820154166115a25760018101545f52600960205260405f2091600b820154916110e583612f3b565b906110ef84612f3b565b926110f985612f3b565b9460065460028801545f5b83811061121657505050506111637f57c51c7000597c5fb75d46882db5bf0787a1750678609a351213dc488e139d5e9495966001600160a01b03600285015416906001600160a01b038060038701541691541690600586015492613507565b6001600160a01b03331673ffffffffffffffffffffffffffffffffffffffff196004840154161760048301556001600160a01b03600a8301911673ffffffffffffffffffffffffffffffffffffffff1982541617905561120f6112006111cd600884015442612b63565b9283600982015554956111f26040519586958652608060208701526080860190612f94565b908482036040860152612f94565b82810360608401523396612f94565b0390a35f80f35b6001600160a01b0361122b82600b8901612b1a565b90549060031b1c166001600160a01b0381165f52600c870160205260405f2054801561157a578061125c848b612f6c565b5261126785826134db565b611271848c612f6c565b5261127c84826134db565b611286848d612f6c565b526001600160a01b0382165f52600c88016020528060405f20556112aa838b612f6c565b516001600160a01b0383165f52600d890160205260405f20556112cd838c612f6c565b516001600160a01b0383165f52600e890160205260405f20556112f0838b612f6c565b51906112fc848d612f6c565b51916040517f679d11970000000000000000000000000000000000000000000000000000000081528460048201526020816024816001600160a01b037f0000000000000000000000000000000000000000000000000000000000000000165afa90811561156f575f91611541575b505f146114e7575050506040517f1281cd00000000000000000000000000000000000000000000000000000000008152602081600481855afa80156114dc576001600160a01b03915f916114ae575b50166001600160a01b037f0000000000000000000000000000000000000000000000000000000000000000161490811591611426575b506113fe576001905b01611104565b7fbfc5dab8000000000000000000000000000000000000000000000000000000005f5260045ffd5b60249150602090604051928380927fe91929b60000000000000000000000000000000000000000000000000000000082523360048301525afa9081156114a3575f91611475575b50158b6113ef565b611496915060203d811161149c575b61148e81836127d2565b810190612b43565b8b61146d565b503d611484565b6040513d5f823e3d90fd5b6114cf915060203d81116114d5575b6114c781836127d2565b810190612d71565b8d6113b9565b503d6114bd565b6040513d5f823e3d90fd5b83919294933b156115195760019461150561150a9261151495612b63565b612b63565b9030903390613973565b6113f8565b7fceea21b6000000000000000000000000000000000000000000000000000000005f5260045ffd5b611562915060203d8111611568575b61155a81836127d2565b810190612b43565b8f61136a565b503d611550565b6040513d5f823e3d90fd5b7fb35f9418000000000000000000000000000000000000000000000000000000005f5260045ffd5b7f2217dcea000000000000000000000000000000000000000000000000000000005f5260045ffd5b7f9cb13087000000000000000000000000000000000000000000000000000000005f5260045ffd5b90504211836110ae565b7f614d3236000000000000000000000000000000000000000000000000000000005f5260045ffd5b5f80fd5b5f80fd5b6129e2565b608060031936011261194857611645612704565b60243560443567ffffffffffffffff8111611944576116689036906004016128ed565b611670612738565b90600854841061191c57670de0b6b3a764000061168f60065486612b63565b116118f457600454936001600160a01b03604051966116ad886127a2565b16865260208601948552604086018181526116c9368487612abc565b96606081019788526001600160a01b03608082019516918286526116ec82613377565b97885f5260096020526001600160a01b038060405f209451161673ffffffffffffffffffffffffffffffffffffffff198454161783555160018301555160028201556003810197519485519867ffffffffffffffff8a116118e05789899761176060209c61175a855461276a565b85612d98565b8b90601f8311600114611824576001600160a01b0361180d9b98957fd193dc4200996fcf9718f75816b40b8099d530ee06ff4accb44cc6b73039f8a398956117bc866117ff9e9d9a9785976004975f92611818575b5050612b9c565b90555b51169201911673ffffffffffffffffffffffffffffffffffffffff19825416179055600454968795604051948594855260608d8601526060850191612de7565b9060408301520390a3612e4a565b600455604051908152f35b90915001515f806117b5565b90601f19839b9998979b1691845f52815f20925f5b8181106118af57509561180d9c956001866001600160a01b03966117ff9f9e9d9b989688966004987fd193dc4200996fcf9718f75816b40b8099d530ee06ff4accb44cc6b73039f8a39f9d10611897575b505050811b0190556117bf565b01515f1960f88460031b161c191690555f808061188a565b938f91929395969798999b9d9a9c50600182918786015181550195019301908d9b999c9a9897969594939291611839565b634e487b7160e01b5f52604160045260245ffd5b7f064a3ff8000000000000000000000000000000000000000000000000000000005f5260045ffd5b7f320c7a15000000000000000000000000000000000000000000000000000000005f5260045ffd5b5f80fd5b5f80fd5b610100600319360112611f6557600435602435906044359161196c612738565b926084359260a43567ffffffffffffffff8111611f61576119919036906004016128ed565b92909460c43567ffffffffffffffff8111611f5d576119b4903690600401612927565b9260e43567ffffffffffffffff8111611f59576119d5903690600401612927565b949093865f52600960205260405f20996001600160a01b038b54169b8c15611f31578a151580611f28575b611f0057878403611ed8575f5f905b858210611e665750506001600160a01b0316809c8115159182611dd7575b5050611daf57611a568884878c858f8a908e611a4e8f600354923691612991565b973391612e6c565b9a8b5f52600b60205260405f2060025481558960018201558d600282019073ffffffffffffffffffffffffffffffffffffffff19825416179055600381016001600160a01b03331673ffffffffffffffffffffffffffffffffffffffff198254161790558560058201558360088201556006810167ffffffffffffffff8c11611d9b57611aed8c611ae7835461276a565b83612d98565b5f8c601f8111600114611d345780611b0c925f91611d29575b50612b9c565b90555b8b6007820155600b810167ffffffffffffffff8611611d15579182611b36878c9495612c2f565b88905f5260205f20905f5b888110611cef575050506004830173ffffffffffffffffffffffffffffffffffffffff1981541690555f6009840155600a830173ffffffffffffffffffffffffffffffffffffffff19815416905560025f910188600c8501928b89600e600d89019801965b818410611c7a57505050505050505050600254986040519c8d5260208d0160e0905260e08d0190611bd692612de7565b9260408c015260608b015289820360808b0152611bf292612e07565b87810360a08901528281527f07ffffffffffffffffffffffffffffffffffffffffffffffffffffffffffffff8311611c7657876020809987947f21d176aa881edcb9c47f6cebf7fe158492013ae7c7898a211b5ded66580601e994611c6b9a8c9860051b80938684013760c084015201030190a4612e4a565b600255604051908152f35b5f80fd5b611ca584611cd792611c9f611c9a836001600160a01b039760019b612d35565b612d59565b95612d35565b358284165f52876020528060405f2055611cc1600654826134db565b8385165f528a60205260405f20558654906134db565b91165f528560205260405f20550189908b898e611ba6565b8192939594506020611d02600193612d59565b9301928185015501908b93949291611b41565b634e487b7160e01b5f52604160045260245ffd5b90508601355f611b06565b601f191690825f528d60205f20925f5b818110611d7d57508111611d63575b905060018092501b019055611b0f565b60f85f199160031b161c19908601351690558f808d611d53565b9293602091925060018291868b013581550194019201908f91611d44565b634e487b7160e01b5f52604160045260245ffd5b7f380b4009000000000000000000000000000000000000000000000000000000005f5260045ffd5b6004919250602090604051928380927f38d52e0f0000000000000000000000000000000000000000000000000000000082525afa8015611e5b576001600160a01b03915f91611e2c575b501614158d8d611a2d565b611e4e915060203d602011611e54575b611e4681836127d2565b810190612d71565b8f611e21565b503d611e3c565b6040513d5f823e3d90fd5b6bffffffffffffffffffffffff19611e87611e8284898c612d35565b612d59565b9160601b166bffffffffffffffffffffffff198260601b161115611eb057600190910190611a0f565b7f84845e2d000000000000000000000000000000000000000000000000000000005f5260045ffd5b7fa24a13a6000000000000000000000000000000000000000000000000000000005f5260045ffd5b7f5b22d1a9000000000000000000000000000000000000000000000000000000005f5260045ffd5b50428b10611a00565b7fb0cfa447000000000000000000000000000000000000000000000000000000005f5260045ffd5b5f80fd5b5f80fd5b5f80fd5b5f80fd5b6040600319360112611fff57611f7d612704565b6001600160a01b03611fcf611f9061271e565b92335f52600c60205260405f208382165f5260205260405f2054928391335f52600c60205260405f208282165f526020525f6040812055169384613423565b6040519081527ffe3464cd748424446c37877c28ce5b700222c5bc9f90d908afcc4e5cb22707ff60203392a35f80f35b5f80fd5b602060031936011261219e57600435805f52600b60205260405f20906001600160a01b036003830154163303612176576001600160a01b0360048301541661214e575f600b830192600c8101600d820191600e8101935b86548110156120c857806001600160a01b03806120796001948b612b1a565b90549060031b1c1661208b838b612b1a565b8382549160031b1b191690558181165f52856020525f60408120558181165f52866020525f6040812055165f52856020525f60408120550161205a565b50845f52600b602052612125600b60405f205f81555f60018201555f60028201555f60038201555f60048201555f600582015561210760068201612bad565b5f60078201555f60088201555f60098201555f600a82015501612c06565b547fc119b2a9f2c0af908846721da7bfe8d805bf89852059096b41b6e1bfb808fd785f80a25f80f35b7f2217dcea000000000000000000000000000000000000000000000000000000005f5260045ffd5b7f30cd7471000000000000000000000000000000000000000000000000000000005f5260045ffd5b5f80fd5b346121c3575f6003193601126121bf576020600454604051908152f35b5f80fd5b5f80fd5b3461220e575f60031936011261220a5760206040516001600160a01b037f0000000000000000000000000000000000000000000000000000000000000000168152f35b5f80fd5b5f80fd5b346122ee5760206003193601126122ea576004355f52600b60205260405f2080546001820154916001600160a01b036002820154166001600160a01b03600383015416916001600160a01b03600482015416926122ce600583015461227960068501612809565b906007850154966008860154946001600160a01b03600a600989015498015416976040519b8c9b8c5260208c015260408b015260608a0152608089015260a088015261016060c08801526101608701906128c8565b9360e08601526101008501526101208401526101408301520390f35b5f80fd5b5f80fd5b602060031936011261233f576001600160a01b0361230e612704565b61231c825f54163314612cd0565b1673ffffffffffffffffffffffffffffffffffffffff1960075416176007555f80f35b5f80fd5b3461240a576020600319360112612406576004355f52600a60205260405f2080546001820154916001600160a01b036002820154166001600160a01b03600383015416916004810154926123eb61239c60058401612809565b6006840154956007850154936001600160a01b036009600888015497015416966040519a8b9a8b5260208b015260408a01526060890152608088015261014060a08801526101408701906128c8565b9360c086015260e08501526101008401526101208301520390f35b5f80fd5b5f80fd5b3461246657604060031936011261246257612427612704565b6001600160a01b0361243761271e565b91165f52600c6020526001600160a01b0360405f2091165f52602052602060405f2054604051908152f35b5f80fd5b5f80fd5b34612494575f6003193601126124905760206001600160a01b0360075416604051908152f35b5f80fd5b5f80fd5b6020600319360112612700576004356124af6133ea565b805f52600a60205260405f209060028201906001600160a01b0382541633036126d8576001600160a01b036003840154166126b057905f90600a8401936001600160a01b037f00000000000000000000000000000000000000000000000000000000000000001690600b8101600d600c83019201945b875481101561266f576001600160a01b03612540828a612b1a565b90549060031b1c16906040517f679d1197000000000000000000000000000000000000000000000000000000008152826004820152602081602481895afa928315612664576001936001600160a01b03925f91612636575b50156125e6575b6125a9838c612b1a565b8382549160031b1b191690558181165f52846020525f60408120558181165f52856020525f6040812055165f52866020525f604081205501612525565b8181165f528460205261263160405f20548383165f528760205261262a8a6126258d60405f2054908888165f526020528760405f205493541694612b63565b612b63565b9083613423565b61259f565b612657915060203d811161265d575b61264f81836127d2565b810190612b43565b8c612598565b503d612645565b6040513d5f823e3d90fd5b86805f52600a60205261268460405f20612c83565b7fa8192679f2a98ef0f7c48a03dd5d944c563888af9eb9c9da2f8932a2d84afa235f80a2600180555f80f35b7f2217dcea000000000000000000000000000000000000000000000000000000005f5260045ffd5b7f30cd7471000000000000000000000000000000000000000000000000000000005f5260045ffd5b5f80fd5b600435906001600160a01b038216820361271a57565b5f80fd5b602435906001600160a01b038216820361273457565b5f80fd5b606435906001600160a01b038216820361274e57565b5f80fd5b35906001600160a01b038216820361276657565b5f80fd5b90600182811c92168015612798575b602083101461278457565b634e487b7160e01b5f52602260045260245ffd5b91607f1691612779565b60a0810190811067ffffffffffffffff8211176127be57604052565b634e487b7160e01b5f52604160045260245ffd5b90601f601f19910116810190811067ffffffffffffffff8211176127f557604052565b634e487b7160e01b5f52604160045260245ffd5b9060405191825f82549261281c8461276a565b938484526001811690815f146128885750600114612844575b50612842925003836127d2565b565b90505f9291925260205f20905f915b81831061286c575050906020612842928201015f612835565b6020919350806001915483858901015201910190918492612853565b602093506128429592507fffffffffffffffffffffffffffffffffffffffffffffffffffffffffffffff0091501682840152151560051b8201015f612835565b90601f19601f602080948051918291828752018686015e5f8582860101520116010190565b9181601f840112156129235782359167ffffffffffffffff831161291f576020838186019501011161291b57565b5f80fd5b5f80fd5b5f80fd5b9181601f840112156129605782359167ffffffffffffffff831161295c576020808501948460051b01011161295857565b5f80fd5b5f80fd5b5f80fd5b67ffffffffffffffff811161297d5760209060051b0190565b634e487b7160e01b5f52604160045260245ffd5b92919061299d81612964565b936129ab60405195866127d2565b602085838152019160051b81019283116129de57905b8282106129cd57505050565b6020809183358152019101906129c1565b5f80fd5b34612ab857610100600319360112612ab45760043560243590604435906001600160a01b0382168203612ab0576064356084359060a43567ffffffffffffffff8111612aac57612a369036906004016128ed565b9060c43567ffffffffffffffff8111612aa857612a57903690600401612927565b94909360e4359767ffffffffffffffff8911612aa4573660238a011215612aa057602099612a92612a989a3690602481600401359101612991565b98612e6c565b604051908152f35b5f80fd5b5f80fd5b5f80fd5b5f80fd5b5f80fd5b5f80fd5b5f80fd5b92919267ffffffffffffffff8211612b065760405191612ae66020601f19601f84011601846127d2565b829481845281830111612b02578281602093845f960137010152565b5f80fd5b634e487b7160e01b5f52604160045260245ffd5b8054821015612b2f575f5260205f2001905f90565b634e487b7160e01b5f52603260045260245ffd5b90816020910312612b5f57518015158103612b5b5790565b5f80fd5b5f80fd5b91908201809211612b7057565b634e487b7160e01b5f52601160045260245ffd5b5b818110612b90575050565b6001905f815501612b85565b5f198260011b9260031b1c19161790565b612bb7815461276a565b9081612bc2575b5050565b81601f5f9311600114612bd95750555b5f80612bbe565b612bf6908284526001601f60208620920160051c82019101612b84565b8082528160208120915555612bd2565b80545f825580612c15575b5050565b612c28915f5260205f2090810190612b84565b5f80612c11565b90680100000000000000008111612c6f57815490808355818110612c53575b505050565b612c67925f5260205f209182019101612b84565b5f8080612c4e565b634e487b7160e01b5f52604160045260245ffd5b600a612cce915f81555f60018201555f60028201555f60038201555f6004820155612cb060058201612bad565b5f60068201555f60078201555f60088201555f600982015501612c06565b565b15612cd757565b60646040517f08c379a000000000000000000000000000000000000000000000000000000000815260206004820152600c60248201527f554e415554484f52495a454400000000000000000000000000000000000000006044820152fd5b9190811015612d455760051b0190565b634e487b7160e01b5f52603260045260245ffd5b356001600160a01b0381168103612d6d5790565b5f80fd5b90816020910312612d9457516001600160a01b0381168103612d905790565b5f80fd5b5f80fd5b9190601f8111612da8575b505050565b612dd2925f5260205f20906020601f840160051c83019310612dda575b601f0160051c0190612b84565b5f8080612da3565b9150601f81929050612dc5565b601f8260209493601f1993818652868601375f8582860101520116010190565b916020908281520191905f5b818110612e205750505090565b9091926020806001926001600160a01b03612e3a88612752565b1681520194019101919091612e13565b5f198114612e585760010190565b634e487b7160e01b5f52601160045260245ffd5b98948692989460b4949792976bffffffffffffffffffffffff196040519b8c9a60208c019e8f5260408c015260601b1660608a015260748901526094880152838701378401015f815293905f5b818110612f0d5750505060208151939101925f5b818110612eef575050612ee9925003601f1981018352826127d2565b51902090565b91600191935060208091865181520194019101918492939193612ecd565b91935091936020806001926001600160a01b03612f2988612752565b16815201940191019185939492612eb9565b90612f4582612964565b612f5260405191826127d2565b828152601f19612f628294612964565b0190602036910137565b8051821015612f805760209160051b010190565b634e487b7160e01b5f52603260045260245ffd5b90602080835192838152019201905f5b818110612fb15750505090565b909192602080600192865181520194019101919091612fa4565b949290945f52600960205260405f20915f146131ab57845f52600a60205260405f2093600885015442116131695761300e91613008913691612abc565b8561374b565b6001600160a01b0380600484015416911603613141576001600160a01b039093929354169261305160038201946001600160a01b03865416600484015491613423565b5f90600a8101600b820191600c810193600d8201956009600284019301915b845481101561312257806001600160a01b038b6130db82806130946001978c612b1a565b90549060031b1c169254168383165f528a60205260405f20548484165f528c6020528d60405f2054908686165f5260205260405f205490868c541692878c5416948761380c565b6130e58389612b1a565b8382549160031b1b191690558181165f52886020525f60408120558181165f52896020525f6040812055165f52886020525f604081205501613070565b5097505050505050505b5f52600a60205261313f60405f20612c83565b565b7f446e0961000000000000000000000000000000000000000000000000000000005f5260045ffd5b5050916001600160a01b0361319692949354169060046001600160a01b0360028301541691015491613423565b5f52600a6020526131a960405f20612c83565b565b845f95949552600b60205260405f209460098601544211613336576131db916131d5913691612abc565b8461374b565b6001600160a01b038060048401541691160361330e576001600160a01b0390541661321a60038501916001600160a01b03835416600587015491613423565b5f90600b8501600c860191600d870193600e880195600a60048a019901915b845481101561330057806001600160a01b03866132b98a8a8f8e86613273898261326560019d8b612b1a565b90549060031b1c1698612b1a565b90549060031b1c1693878d5416938888165f5260205260405f2054908888165f5260205260405f2054918888165f526020528760405f205493541693888d54169561380c565b6132c38389612b1a565b8382549160031b1b191690558181165f52886020525f60408120558181165f52896020525f6040812055165f52886020525f604081205501613239565b50975050505050505061312c565b7f446e0961000000000000000000000000000000000000000000000000000000005f5260045ffd5b5050926001600160a01b03613362929454169060056001600160a01b0360048301541691015491613423565b5f52600a60205261337560405f20612c83565b565b6040516133e4816020810193602085526001600160a01b03815116604083015260208101516060830152604081015160808301526001600160a01b0360806133cd606084015160a08087015260e08601906128c8565b9201511660c083015203601f1981018352826127d2565b51902090565b6002600154146133fb576002600155565b7f3ee5aeb5000000000000000000000000000000000000000000000000000000005f5260045ffd5b5f91826044926020956001600160a01b03604051947fa9059cbb00000000000000000000000000000000000000000000000000000000865216600485015260248401525af13d15601f3d1160015f51141617161561347d57565b60646040517f08c379a000000000000000000000000000000000000000000000000000000000815260206004820152600f60248201527f5452414e534645525f4641494c454400000000000000000000000000000000006044820152fd5b90805f19048211810215670de0b6b3a7640000021561350357670de0b6b3a764000091020490565b5f80fd5b6001600160a01b031680155f1461352957509061352692913091613973565b5b565b916001600160a01b031691604051917f70a08231000000000000000000000000000000000000000000000000000000008352306004840152602083602481875afa928315613740575f936136f5575b506001600160a01b0360646020925f60405195869485937fb460af940000000000000000000000000000000000000000000000000000000085528b60048601523060248601521660448401525af180156136ea576136aa575b506020602492604051938480927f70a082310000000000000000000000000000000000000000000000000000000082523060048301525afa91821561369f575f92613663575b50810390811161364f571015613527577fa4372937000000000000000000000000000000000000000000000000000000005f5260045ffd5b634e487b7160e01b5f52601160045260245ffd5b9091506020813d602011613693575b8161367f602093836127d2565b8101031261368f5751905f613617565b5f80fd5b602091503d9150613672565b6040513d5f823e3d90fd5b6020813d6020116136de575b816136c3602093836127d2565b810103126136da57602492602091515092506135d1565b5f80fd5b602091503d91506136b6565b6040513d5f823e3d90fd5b9092506020813d602011613734575b81613711602093836127d2565b81010312613730576001600160a01b0360646020925194925050613578565b5f80fd5b602091503d9150613704565b6040513d5f823e3d90fd5b9190600190604051935f52602081015160405260408151146137aa57604181511461378d5750506020604060805f805b5afa505f6060523d6060185191604052565b60805f602093604084606082960151841a8752015160605261377b565b60805f6020937f7fffffffffffffffffffffffffffffffffffffffffffffffffffffffffffffff604080950151601b8160ff1c0187521660605261377b565b9160409194936001600160a01b0391826060860197168552602085015216910152565b929383613834939761382f888098999599846001600160a01b0360075416613a33565b613a33565b6001600160a01b03604051917f679d119700000000000000000000000000000000000000000000000000000000835216908160048201526020816024816001600160a01b037f0000000000000000000000000000000000000000000000000000000000000000165afa908115613968575f91613939575b505f1461392857803b15613924576138f6935f8094604051968795869485937f6b1b863a000000000000000000000000000000000000000000000000000000008552600485016137e9565b03925af1801561391957613909575b505b565b5f613913916127d2565b5f613905565b6040513d5f823e3d90fd5b5f80fd5b61393493929150613423565b613907565b61395b915060203d602011613961575b61395381836127d2565b810190612b43565b5f6138ab565b503d613949565b6040513d5f823e3d90fd5b905f6064926020956001600160a01b03839681604051967f23b872dd00000000000000000000000000000000000000000000000000000000885216600487015216602485015260448401525af13d15601f3d1160015f5114161716156139d557565b60646040517f08c379a000000000000000000000000000000000000000000000000000000000815260206004820152601460248201527f5452414e534645525f46524f4d5f4641494c45440000000000000000000000006044820152fd5b9192906001600160a01b03604051917f679d119700000000000000000000000000000000000000000000000000000000835216908160048201526020816024816001600160a01b037f0000000000000000000000000000000000000000000000000000000000000000165afa908115613b8c575f91613b5d575b505f14613b2a57803b15613b2657613af8935f8094604051968795869485937f6b1b863a000000000000000000000000000000000000000000000000000000008552600485016137e9565b03925af18015613b1b57613b0b575b505b565b5f613b15916127d2565b5f613b07565b6040513d5f823e3d90fd5b5f80fd5b916001600160a01b039150165f52600c60205260405f20905f52602052613b5660405f20918254612b63565b9055613b09565b613b7f915060203d602011613b85575b613b7781836127d2565b810190612b43565b5f613aad565b503d613b6d565b6040513d5f823e3d90fd","linkReferences":{}},"methodIdentifiers":{"POINTS_FACTORY()":"250b9ded","cancelAPOffer(bytes32)":"2ae297e2","cancelIPOffer(bytes32)":"05c21582","claim(bytes32,bytes32,bool,bytes)":"695aa12a","claimFees(address,address)":"2dbfa735","createAPOffer(bytes32,uint256,uint256,address,uint256,bytes,address[],uint256[])":"2dbfed34","createIPOffer(bytes32,uint256,bytes,uint256,uint256,address[],uint256[])":"89158eb0","createMarket(address,uint256,bytes,address)":"3989f799","feeClaimantToTokenToAmount(address,address)":"0cadba1a","fillAPOffer(bytes32,address)":"539ad07d","fillIPOffer(bytes32,address,address)":"c124d089","getAPOfferHash(uint256,bytes32,address,uint256,uint256,bytes,address[],uint256[])":"b4fc032a","getIPOfferHash(uint256,bytes32,address,uint256,uint256,bytes,address[],uint256[])":"514c6d63","getMarketHash((address,uint256,uint256,bytes,address))":"ade82341","marketHashToOffchainActionMarket(bytes32)":"b8ccb1d8","minimumFrontendFee()":"f3256c81","numAPOffers()":"80dd127a","numIPOffers()":"82ae91d1","numMarkets()":"26e04f9d","offerHashToAPOffer(bytes32)":"19c7e2c5","offerHashToIPOffer(bytes32)":"15a0c8bd","owner()":"8da5cb5b","protocolFee()":"b0e21e8a","protocolFeeClaimant()":"072fc961","setMinimumFrontendFee(uint256)":"fcd9664b","setOffersPaused(bool)":"ec1d465e","setProtocolFee(uint256)":"787dce3d","setProtocolFeeClaimant(address)":"15a2fdee","transferOwnership(address)":"f2fde38b"},"id":37}