{"abi":[{"type":"constructor","inputs":[{"name":"_protocolFee","type":"uint256","internalType":"uint256"},{"name":"_minimumFrontendFee","type":"uint256","internalType":"uint256"},{"name":"_owner","type":"address","internalType":"address"},{"name":"_pointsFactory","type":"address","internalType":"address"}],"stateMutability":"payable"},{"type":"function","name":"POINTS_FACTORY","inputs":[],"outputs":[{"name":"","type":"address","internalType":"address"}],"stateMutability":"view"},{"type":"function","name":"cancelAPOffer","inputs":[{"name":"offerHash","type":"bytes32","internalType":"bytes32"}],"outputs":[],"stateMutability":"payable"},{"type":"function","name":"cancelIPOffer","inputs":[{"name":"offerHash","type":"bytes32","internalType":"bytes32"}],"outputs":[],"stateMutability":"payable"},{"type":"function","name":"claim","inputs":[{"name":"marketHash","type":"bytes32","internalType":"bytes32"},{"name":"offerHash","type":"bytes32","internalType":"bytes32"},{"name":"wasIPOffer","type":"bool","internalType":"bool"},{"name":"oanSignature","type":"bytes","internalType":"bytes"}],"outputs":[],"stateMutability":"payable"},{"type":"function","name":"claimFees","inputs":[{"name":"incentiveToken","type":"address","internalType":"address"},{"name":"to","type":"address","internalType":"address"}],"outputs":[],"stateMutability":"payable"},{"type":"function","name":"createAPOffer","inputs":[{"name":"targetMarketHash","type":"bytes32","internalType":"bytes32"},{"name":"expiry","type":"uint256","internalType":"uint256"},{"name":"stakeAmount","type":"uint256","internalType":"uint256"},{"name":"fundingVault","type":"address","internalType":"address"},{"name":"timeToAct","type":"uint256","internalType":"uint256"},{"name":"verificationScriptParams","type":"bytes","internalType":"bytes"},{"name":"incentivesRequested","type":"address[]","internalType":"address[]"},{"name":"incentiveAmountsRequested","type":"uint256[]","internalType":"uint256[]"}],"outputs":[{"name":"offerHash","type":"bytes32","internalType":"bytes32"}],"stateMutability":"payable"},{"type":"function","name":"createIPOffer","inputs":[{"name":"targetMarketHash","type":"bytes32","internalType":"bytes32"},{"name":"stakeAmount","type":"uint256","internalType":"uint256"},{"name":"verificationScriptParams","type":"bytes","internalType":"bytes"},{"name":"expiry","type":"uint256","internalType":"uint256"},{"name":"timeToAct","type":"uint256","internalType":"uint256"},{"name":"incentivesOffered","type":"address[]","internalType":"address[]"},{"name":"incentiveAmountsPaid","type":"uint256[]","internalType":"uint256[]"}],"outputs":[{"name":"offerHash","type":"bytes32","internalType":"bytes32"}],"stateMutability":"payable"},{"type":"function","name":"createMarket","inputs":[{"name":"stakingToken","type":"address","internalType":"contract ERC20"},{"name":"frontendFee","type":"uint256","internalType":"uint256"},{"name":"ipfsCID","type":"bytes","internalType":"bytes"},{"name":"oanSigningAddress","type":"address","internalType":"address"}],"outputs":[{"name":"marketHash","type":"bytes32","internalType":"bytes32"}],"stateMutability":"payable"},{"type":"function","name":"feeClaimantToTokenToAmount","inputs":[{"name":"","type":"address","internalType":"address"},{"name":"","type":"address","internalType":"address"}],"outputs":[{"name":"","type":"uint256","internalType":"uint256"}],"stateMutability":"view"},{"type":"function","name":"fillAPOffer","inputs":[{"name":"offerHash","type":"bytes32","internalType":"bytes32"},{"name":"frontendFeeRecipient","type":"address","internalType":"address"}],"outputs":[],"stateMutability":"nonpayable"},{"type":"function","name":"fillIPOffer","inputs":[{"name":"offerHash","type":"bytes32","internalType":"bytes32"},{"name":"fundingVault","type":"address","internalType":"address"},{"name":"frontendFeeRecipient","type":"address","internalType":"address"}],"outputs":[],"stateMutability":"nonpayable"},{"type":"function","name":"getAPOfferHash","inputs":[{"name":"offerID","type":"uint256","internalType":"uint256"},{"name":"targetMarketHash","type":"bytes32","internalType":"bytes32"},{"name":"ap","type":"address","internalType":"address"},{"name":"expiry","type":"uint256","internalType":"uint256"},{"name":"stakeAmount","type":"uint256","internalType":"uint256"},{"name":"verificationScriptParams","type":"bytes","internalType":"bytes"},{"name":"incentivesRequested","type":"address[]","internalType":"address[]"},{"name":"incentiveAmountsRequested","type":"uint256[]","internalType":"uint256[]"}],"outputs":[{"name":"","type":"bytes32","internalType":"bytes32"}],"stateMutability":"pure"},{"type":"function","name":"getIPOfferHash","inputs":[{"name":"offerID","type":"uint256","internalType":"uint256"},{"name":"targetMarketHash","type":"bytes32","internalType":"bytes32"},{"name":"ip","type":"address","internalType":"address"},{"name":"expiry","type":"uint256","internalType":"uint256"},{"name":"stakeAmount","type":"uint256","internalType":"uint256"},{"name":"verificationScriptParams","type":"bytes","internalType":"bytes"},{"name":"incentivesOffered","type":"address[]","internalType":"address[]"},{"name":"incentiveAmountsOffered","type":"uint256[]","internalType":"uint256[]"}],"outputs":[{"name":"","type":"bytes32","internalType":"bytes32"}],"stateMutability":"pure"},{"type":"function","name":"getMarketHash","inputs":[{"name":"market","type":"tuple","internalType":"struct OffchainActionMarketHub.OffchainActionMarket","components":[{"name":"stakingToken","type":"address","internalType":"contract ERC20"},{"name":"marketID","type":"uint256","internalType":"uint256"},{"name":"frontendFee","type":"uint256","internalType":"uint256"},{"name":"ipfsCID","type":"bytes","internalType":"bytes"},{"name":"oanSigningAddress","type":"address","internalType":"address"}]}],"outputs":[{"name":"","type":"bytes32","internalType":"bytes32"}],"stateMutability":"pure"},{"type":"function","name":"marketHashToOffchainActionMarket","inputs":[{"name":"","type":"bytes32","internalType":"bytes32"}],"outputs":[{"name":"stakingToken","type":"address","internalType":"contract ERC20"},{"name":"marketID","type":"uint256","internalType":"uint256"},{"name":"frontendFee","type":"uint256","internalType":"uint256"},{"name":"ipfsCID","type":"bytes","internalType":"bytes"},{"name":"oanSigningAddress","type":"address","internalType":"address"}],"stateMutability":"view"},{"type":"function","name":"minimumFrontendFee","inputs":[],"outputs":[{"name":"","type":"uint256","internalType":"uint256"}],"stateMutability":"view"},{"type":"function","name":"numAPOffers","inputs":[],"outputs":[{"name":"","type":"uint256","internalType":"uint256"}],"stateMutability":"view"},{"type":"function","name":"numIPOffers","inputs":[],"outputs":[{"name":"","type":"uint256","internalType":"uint256"}],"stateMutability":"view"},{"type":"function","name":"numMarkets","inputs":[],"outputs":[{"name":"","type":"uint256","internalType":"uint256"}],"stateMutability":"view"},{"type":"function","name":"offerHashToAPOffer","inputs":[{"name":"","type":"bytes32","internalType":"bytes32"}],"outputs":[{"name":"offerID","type":"uint256","internalType":"uint256"},{"name":"targetMarketHash","type":"bytes32","internalType":"bytes32"},{"name":"fundingVault","type":"address","internalType":"address"},{"name":"ap","type":"address","internalType":"address"},{"name":"ipFiller","type":"address","internalType":"address"},{"name":"stakeAmount","type":"uint256","internalType":"uint256"},{"name":"verificationScriptParams","type":"bytes","internalType":"bytes"},{"name":"expiry","type":"uint256","internalType":"uint256"},{"name":"timeToAct","type":"uint256","internalType":"uint256"},{"name":"dueDate","type":"uint256","internalType":"uint256"},{"name":"frontendFeeRecipient","type":"address","internalType":"address"}],"stateMutability":"view"},{"type":"function","name":"offerHashToIPOffer","inputs":[{"name":"","type":"bytes32","internalType":"bytes32"}],"outputs":[{"name":"offerID","type":"uint256","internalType":"uint256"},{"name":"targetMarketHash","type":"bytes32","internalType":"bytes32"},{"name":"ip","type":"address","internalType":"address"},{"name":"apFiller","type":"address","internalType":"address"},{"name":"stakeAmount","type":"uint256","internalType":"uint256"},{"name":"verificationScriptParams","type":"bytes","internalType":"bytes"},{"name":"expiry","type":"uint256","internalType":"uint256"},{"name":"timeToAct","type":"uint256","internalType":"uint256"},{"name":"dueDate","type":"uint256","internalType":"uint256"},{"name":"frontendFeeRecipient","type":"address","internalType":"address"}],"stateMutability":"view"},{"type":"function","name":"owner","inputs":[],"outputs":[{"name":"","type":"address","internalType":"address"}],"stateMutability":"view"},{"type":"function","name":"protocolFee","inputs":[],"outputs":[{"name":"","type":"uint256","internalType":"uint256"}],"stateMutability":"view"},{"type":"function","name":"protocolFeeClaimant","inputs":[],"outputs":[{"name":"","type":"address","internalType":"address"}],"stateMutability":"view"},{"type":"function","name":"setMinimumFrontendFee","inputs":[{"name":"_minimumFrontendFee","type":"uint256","internalType":"uint256"}],"outputs":[],"stateMutability":"payable"},{"type":"function","name":"setOffersPaused","inputs":[{"name":"_offersPaused","type":"bool","internalType":"bool"}],"outputs":[],"stateMutability":"nonpayable"},{"type":"function","name":"setProtocolFee","inputs":[{"name":"_protocolFee","type":"uint256","internalType":"uint256"}],"outputs":[],"stateMutability":"payable"},{"type":"function","name":"setProtocolFeeClaimant","inputs":[{"name":"_protocolFeeClaimant","type":"address","internalType":"address"}],"outputs":[],"stateMutability":"payable"},{"type":"function","name":"transferOwnership","inputs":[{"name":"newOwner","type":"address","internalType":"address"}],"outputs":[],"stateMutability":"nonpayable"},{"type":"event","name":"APOfferCancelled","inputs":[{"name":"offerID","type":"uint256","indexed":true,"internalType":"uint256"}],"anonymous":false},{"type":"event","name":"APOfferCreated","inputs":[{"name":"offerID","type":"uint256","indexed":true,"internalType":"uint256"},{"name":"offerHash","type":"bytes32","indexed":true,"internalType":"bytes32"},{"name":"marketHash","type":"bytes32","indexed":true,"internalType":"bytes32"},{"name":"fundingVault","type":"address","indexed":false,"internalType":"address"},{"name":"verificationScriptParams","type":"bytes","indexed":false,"internalType":"bytes"},{"name":"stakeAmount","type":"uint256","indexed":false,"internalType":"uint256"},{"name":"timeToAct","type":"uint256","indexed":false,"internalType":"uint256"},{"name":"incentiveAddresses","type":"address[]","indexed":false,"internalType":"address[]"},{"name":"incentiveAmounts","type":"uint256[]","indexed":false,"internalType":"uint256[]"},{"name":"expiry","type":"uint256","indexed":false,"internalType":"uint256"}],"anonymous":false},{"type":"event","name":"APOfferFilled","inputs":[{"name":"offerID","type":"uint256","indexed":true,"internalType":"uint256"},{"name":"ip","type":"address","indexed":true,"internalType":"address"},{"name":"dueDate","type":"uint256","indexed":false,"internalType":"uint256"},{"name":"incentiveAmounts","type":"uint256[]","indexed":false,"internalType":"uint256[]"},{"name":"protocolFeeAmounts","type":"uint256[]","indexed":false,"internalType":"uint256[]"},{"name":"frontendFeeAmounts","type":"uint256[]","indexed":false,"internalType":"uint256[]"}],"anonymous":false},{"type":"event","name":"ClaimedIncentive","inputs":[{"name":"ap","type":"address","indexed":true,"internalType":"address"},{"name":"incentive","type":"address","indexed":false,"internalType":"address"}],"anonymous":false},{"type":"event","name":"FeesClaimed","inputs":[{"name":"claimant","type":"address","indexed":true,"internalType":"address"},{"name":"incentive","type":"address","indexed":true,"internalType":"address"},{"name":"amount","type":"uint256","indexed":false,"internalType":"uint256"}],"anonymous":false},{"type":"event","name":"IPOfferCancelled","inputs":[{"name":"offerHash","type":"bytes32","indexed":true,"internalType":"bytes32"}],"anonymous":false},{"type":"event","name":"IPOfferCreated","inputs":[{"name":"offerID","type":"uint256","indexed":true,"internalType":"uint256"},{"name":"offerHash","type":"bytes32","indexed":true,"internalType":"bytes32"},{"name":"marketHash","type":"bytes32","indexed":true,"internalType":"bytes32"},{"name":"verificationScriptParams","type":"bytes","indexed":false,"internalType":"bytes"},{"name":"stakeAmount","type":"uint256","indexed":false,"internalType":"uint256"},{"name":"timeToAct","type":"uint256","indexed":false,"internalType":"uint256"},{"name":"incentivesOffered","type":"address[]","indexed":false,"internalType":"address[]"},{"name":"incentiveAmounts","type":"uint256[]","indexed":false,"internalType":"uint256[]"},{"name":"protocolFeeAmounts","type":"uint256[]","indexed":false,"internalType":"uint256[]"},{"name":"frontendFeeAmounts","type":"uint256[]","indexed":false,"internalType":"uint256[]"},{"name":"expiry","type":"uint256","indexed":false,"internalType":"uint256"}],"anonymous":false},{"type":"event","name":"IPOfferFilled","inputs":[{"name":"offerHash","type":"bytes32","indexed":true,"internalType":"bytes32"},{"name":"ap","type":"address","indexed":true,"internalType":"address"},{"name":"dueDate","type":"uint256","indexed":false,"internalType":"uint256"}],"anonymous":false},{"type":"event","name":"MarketCreated","inputs":[{"name":"marketID","type":"uint256","indexed":true,"internalType":"uint256"},{"name":"marketHash","type":"bytes32","indexed":true,"internalType":"bytes32"},{"name":"frontendFee","type":"uint256","indexed":false,"internalType":"uint256"},{"name":"ipfsCID","type":"bytes","indexed":false,"internalType":"bytes"},{"name":"oanSigningAddress","type":"address","indexed":false,"internalType":"address"}],"anonymous":false},{"type":"event","name":"OwnershipTransferred","inputs":[{"name":"user","type":"address","indexed":true,"internalType":"address"},{"name":"newOwner","type":"address","indexed":true,"internalType":"address"}],"anonymous":false},{"type":"error","name":"ArrayLengthMismatch","inputs":[]},{"type":"error","name":"CannotFillZeroQuantityOffer","inputs":[]},{"type":"error","name":"CannotPlaceExpiredOffer","inputs":[]},{"type":"error","name":"CannotPlaceZeroQuantityOffer","inputs":[]},{"type":"error","name":"FrontendFeeTooLow","inputs":[]},{"type":"error","name":"InvalidMarketInputToken","inputs":[]},{"type":"error","name":"InvalidOanSignature","inputs":[]},{"type":"error","name":"InvalidPointsProgram","inputs":[]},{"type":"error","name":"MarketDoesNotExist","inputs":[]},{"type":"error","name":"MismatchedBaseAsset","inputs":[]},{"type":"error","name":"NoIncentivesPaidOnFill","inputs":[]},{"type":"error","name":"NotOwner","inputs":[]},{"type":"error","name":"OfferAlreadyFilled","inputs":[]},{"type":"error","name":"OfferCannotContainDuplicates","inputs":[]},{"type":"error","name":"OfferExpired","inputs":[]},{"type":"error","name":"OffersPaused","inputs":[]},{"type":"error","name":"ReentrancyGuardReentrantCall","inputs":[]},{"type":"error","name":"StakingFailed","inputs":[]},{"type":"error","name":"TokenDoesNotExist","inputs":[]},{"type":"error","name":"TotalFeeTooHigh","inputs":[]}],"bytecode":{"object":"0x60a0613c5080380390601f19601f83011683019183831060018060401b03841117610101578084926080946040528339810103126100fd578051602082015190610057606061005060408601610115565b9401610115565b9260018060a01b0316908160018060a01b03195f5416175f5560405193825f7f8be0079c531659141344cd1fd0a4f28419497f9722a3daafe3b4186f6b6457e08180a36001805560805260065560018060a01b03196007541617600755600855613b23908161012d8239608051818181610c1f01528181610cb3015281816112ee015281816113790152818161217201528181612482015281816138070152613a090152f35b5f80fd5b634e487b7160e01b5f52604160045260245ffd5b519060018060a01b038216820361012857565b5f80fdfe60a06040526004361015610012575b5f80fd5b5f3560e01c806305c2158214612424578063072fc961146123f65780630cadba1a1461239a57806315a0c8bd146122cf57806315a2fdee1461227e57806319c7e2c51461219e578063250b9ded1461215357806326e04f9d1461212e5780632ae297e214611f8f5780632dbfa73514611ef55780632dbfed34146118d85780633989f799146115bd578063514c6d63146115b8578063539ad07d1461102a578063695aa12a14610fc6578063787dce3d14610f9757806380dd127a14610f7257806382ae91d114610f4d57806389158eb0146106b35780638da5cb5b14610686578063ade82341146105b1578063b0e21e8a1461058c578063b4fc032a14610587578063b8ccb1d8146104fe578063c124d08914610299578063ec1d465e14610229578063f2fde38b146101a9578063f3256c81146101845763fcd9664b0361000e576020600319360112610180576101766001600160a01b035f54163314612c5c565b6004356008555f80f35b5f80fd5b346101a5575f6003193601126101a1576020600854604051908152f35b5f80fd5b5f80fd5b346102255760206003193601126102215773ffffffffffffffffffffffffffffffffffffffff196101d8612690565b6001600160a01b035f54916101f08284163314612c5c565b1691829116175f55337f8be0079c531659141344cd1fd0a4f28419497f9722a3daafe3b4186f6b6457e05f80a35f80f35b5f80fd5b5f80fd5b346102955760206003193601126102915760043580151580910361028d5761025c6001600160a01b035f54163314612c5c565b60ff7fffffffffffffffffffffffffffffffffffffffffffffffffffffffffffffff00600554169116176005555f80f35b5f80fd5b5f80fd5b5f80fd5b346104fa5760606003193601126104f6576004356102b56126aa565b906044356001600160a01b03811681036104f257815f52600a60205260405f209060018201545f52600960205260405f20600683015480151590816104e8575b506104c05760038301906001600160a01b03825416610498576001600160a01b0386168015159081610400575b506103d8576008956001600160a01b036103459254166004860154913390613493565b6001600160a01b03331673ffffffffffffffffffffffffffffffffffffffff198254161790556001600160a01b0360098301911673ffffffffffffffffffffffffffffffffffffffff198254161790556103a3600782015442612aef565b92839101556040519182527f2c6f6c43b5f2635558b31e1644ab72a4601325e95b65a407fa0afc821a4e665960203393a35f80f35b7f380b4009000000000000000000000000000000000000000000000000000000005f5260045ffd5b9050600460206001600160a01b0384541692604051928380927f38d52e0f0000000000000000000000000000000000000000000000000000000082525afa801561048d576001600160a01b03915f9161045e575b5016141587610322565b610480915060203d602011610486575b610478818361275e565b810190612cfd565b89610454565b503d61046e565b6040513d5f823e3d90fd5b7f2217dcea000000000000000000000000000000000000000000000000000000005f5260045ffd5b7f9cb13087000000000000000000000000000000000000000000000000000000005f5260045ffd5b90504211866102f5565b5f80fd5b5f80fd5b5f80fd5b3461058357602060031936011261057f576004355f52600960205260405f206001600160a01b038154166001820154916105756002820154916001600160a01b03600461054d60038401612795565b920154169260405195869586526020860152604085015260a0606085015260a0840190612854565b9060808301520390f35b5f80fd5b5f80fd5b61296e565b346105ad575f6003193601126105a9576020600654604051908152f35b5f80fd5b5f80fd5b3461068257602060031936011261067e5760043567ffffffffffffffff811161067a5760a06003198236030112610676576040516105ee8161272e565b6105fa826004016126de565b81526024820135602082015260448201356040820152606482013567ffffffffffffffff8111610672578201903660238301121561066e5761065c6084602094610651610666953690602460048201359101612a48565b6060850152016126de565b6080820152613303565b604051908152f35b5f80fd5b5f80fd5b5f80fd5b5f80fd5b5f80fd5b5f80fd5b346106af575f6003193601126106ab5760206001600160a01b035f5416604051908152f35b5f80fd5b5f80fd5b60e0600319360112610f495760443567ffffffffffffffff8111610f45576106df903690600401612879565b60a43567ffffffffffffffff8111610f41576106ff9036906004016128b3565b919060c43567ffffffffffffffff8111610f3d576107219036906004016128b3565b9161072a613376565b6004355f52600960205260405f20926001600160a01b0384541615610f1557606435151580610f0a575b610ee257808603610eba5761076886612ec7565b60805261077486612ec7565b9261077e87612ec7565b945f915f5b898110610ae6575050505050600354946107af6080518284888b6024356064358d339060043590612df8565b95865f52600a60205260405f209081556004356001820155600281016001600160a01b03331673ffffffffffffffffffffffffffffffffffffffff198254161790556024356004820155608435600782015567ffffffffffffffff8611610ad25761082a8661082160058401546126f6565b60058401612d24565b5f86601f8111600114610a675780610849925f91610a5c575b50612b28565b60058201555b6064356006820155600a810167ffffffffffffffff8311610a48576108748382612bbb565b83905f5260205f20905f5b848110610a2d575050506003810173ffffffffffffffffffffffffffffffffffffffff1981541690555f60088201556009810173ffffffffffffffffffffffffffffffffffffffff1981541690555f600b820190600d600c84019301905b8481106109af5750505050937f6157a5c9356c90bd4242bf14d71836ea1c42539aa5e02b962f78b2379570e56961098a6020989561097c6101009661096e61095e8c986109a09c61093c6003549d8e9b6040519e8f8181520191612d73565b9160208d906024359101528c60406084359101528c6060818503910152612d93565b89810360808b0152608051612f20565b9088820360a08a0152612f20565b9086820360c0880152612f20565b9360643560e082015280600435950390a4612dd6565b60035560018055604051908152f35b806109c56109c0600193888a612cc1565b612ce5565b6109d182608051612ef8565b516001600160a01b0382165f528560205260405f20556109f1828a612ef8565b516001600160a01b0382165f528660205260405f20556001600160a01b03610a19838c612ef8565b5191165f528360205260405f2055016108dd565b6001906020610a3b84612ce5565b930192818501550161087f565b634e487b7160e01b5f52604160045260245ffd5b90508a01358b610843565b50600582015f5260205f20905f5b8a601f198a168210610aba57505087601f19811610610aa1575b5050600186811b01600582015561084f565b5f1960f88960031b161c19908a01351690558880610a8f565b60018394602093948493013581550193019101610a75565b634e487b7160e01b5f52604160045260245ffd5b6bffffffffffffffffffffffff19610b07610b02838d8a612cc1565b612ce5565b9460601b166bffffffffffffffffffffffff198560601b161115610e925783610b31828785612cc1565b356002850154906006549081670de0b6b3a76400000180670de0b6b3a764000011610e7e5783610b6091612aef565b7812725dd1d243aba0e75fe645cc4873f9e65afe688c928e1f218211670de0b6b3a76400000215810215610e7a57610bd9868e81968f94610bb4610bd391670de0b6b3a7640000610bbd9902049889613467565b96879289613467565b98899689610bcd83608051612ef8565b52612ef8565b52612ef8565b526040517f679d11970000000000000000000000000000000000000000000000000000000081526001600160a01b03851660048201526020816024816001600160a01b037f0000000000000000000000000000000000000000000000000000000000000000165afa908115610e6f575f91610e41575b505f14610dde575050506040517f1281cd000000000000000000000000000000000000000000000000000000000081526020816004816001600160a01b0386165afa8015610dd3576001600160a01b03915f91610da5575b50166001600160a01b037f0000000000000000000000000000000000000000000000000000000000000000161490811591610d14575b50610cec576001905b01610783565b7fbfc5dab8000000000000000000000000000000000000000000000000000000005f5260045ffd5b6001600160a01b0391506020906024604051809481937fe91929b6000000000000000000000000000000000000000000000000000000008352336004840152165afa908115610d9a575f91610d6c575b50158c610cdd565b610d8d915060203d8111610d93575b610d85818361275e565b810190612acf565b8c610d64565b503d610d7b565b6040513d5f823e3d90fd5b610dc6915060203d8111610dcc575b610dbe818361275e565b810190612cfd565b8e610ca7565b503d610db4565b6040513d5f823e3d90fd5b83919294933b15610e1957600194610dfc610e0192610e1495612aef565b612aef565b9030906001600160a01b033391166138ff565b610ce6565b7fceea21b6000000000000000000000000000000000000000000000000000000005f5260045ffd5b610e62915060203d8111610e68575b610e5a818361275e565b810190612acf565b5f610c4f565b503d610e50565b6040513d5f823e3d90fd5b5f80fd5b634e487b7160e01b5f52601160045260245ffd5b7f84845e2d000000000000000000000000000000000000000000000000000000005f5260045ffd5b7fa24a13a6000000000000000000000000000000000000000000000000000000005f5260045ffd5b7f5b22d1a9000000000000000000000000000000000000000000000000000000005f5260045ffd5b504260643510610754565b7fb0cfa447000000000000000000000000000000000000000000000000000000005f5260045ffd5b5f80fd5b5f80fd5b5f80fd5b5f80fd5b34610f6e575f600319360112610f6a576020600354604051908152f35b5f80fd5b5f80fd5b34610f93575f600319360112610f8f576020600254604051908152f35b5f80fd5b5f80fd5b6020600319360112610fc257610fb86001600160a01b035f54163314612c5c565b6004356006555f80f35b5f80fd5b6080600319360112611026576044358015158103611022576064359067ffffffffffffffff821161101e57611002611016923690600401612879565b9161100b613376565b602435600435612f57565b600180555f80f35b5f80fd5b5f80fd5b5f80fd5b346115b45760406003193601126115b0576110436126aa565b6004355f52600b60205260405f20600781015480151590816115a6575b5061157e576001600160a01b036004820154166115565760018101545f52600960205260405f20600b82019283549261109884612ec7565b916110a285612ec7565b936110ac86612ec7565b9560065460028301545f5b8381106111c85789897f57c51c7000597c5fb75d46882db5bf0787a1750678609a351213dc488e139d5e8a8a8a6111158b6001600160a01b03600285015416906001600160a01b038060038701541691541690600586015492613493565b6001600160a01b03331673ffffffffffffffffffffffffffffffffffffffff196004840154161760048301556001600160a01b03600a8301911673ffffffffffffffffffffffffffffffffffffffff198254161790556111c16111b261117f600884015442612aef565b9283600982015554956111a46040519586958652608060208701526080860190612f20565b908482036040860152612f20565b82810360608401523396612f20565b0390a35f80f35b6001600160a01b036111da828d612aa6565b90549060031b1c166001600160a01b0381165f52600c880160205260405f2054801561152e57806112b0846112a98f948f8f8f909261121a868095612ef8565b526112258c88613467565b61122f8484612ef8565b5261123a8b88613467565b611244848a612ef8565b526001600160a01b0389165f52600c81016020528660405f20556112688383612ef8565b516001600160a01b038a165f52600d820160205260405f2055600e61128d848a612ef8565b51916001600160a01b038b165f520160205260405f2055612ef8565b5193612ef8565b51916040517f679d11970000000000000000000000000000000000000000000000000000000081528460048201526020816024816001600160a01b037f0000000000000000000000000000000000000000000000000000000000000000165afa908115611523575f916114f5575b505f1461149b575050506040517f1281cd00000000000000000000000000000000000000000000000000000000008152602081600481855afa8015611490576001600160a01b03915f91611462575b50166001600160a01b037f00000000000000000000000000000000000000000000000000000000000000001614908115916113da575b506113b2576001905b016110b7565b7fbfc5dab8000000000000000000000000000000000000000000000000000000005f5260045ffd5b60249150602090604051928380927fe91929b60000000000000000000000000000000000000000000000000000000082523360048301525afa908115611457575f91611429575b50158c6113a3565b61144a915060203d8111611450575b611442818361275e565b810190612acf565b8c611421565b503d611438565b6040513d5f823e3d90fd5b611483915060203d8111611489575b61147b818361275e565b810190612cfd565b8e61136d565b503d611471565b6040513d5f823e3d90fd5b83919294933b156114cd576001946114b96114be926114c895612aef565b612aef565b90309033906138ff565b6113ac565b7fceea21b6000000000000000000000000000000000000000000000000000000005f5260045ffd5b611516915060203d811161151c575b61150e818361275e565b810190612acf565b5f61131e565b503d611504565b6040513d5f823e3d90fd5b7fb35f9418000000000000000000000000000000000000000000000000000000005f5260045ffd5b7f2217dcea000000000000000000000000000000000000000000000000000000005f5260045ffd5b7f9cb13087000000000000000000000000000000000000000000000000000000005f5260045ffd5b9050421183611060565b5f80fd5b5f80fd5b61296e565b60806003193601126118d4576115d1612690565b60243560443567ffffffffffffffff81116118d0576115f4903690600401612879565b6115fc6126c4565b9060085484106118a857670de0b6b3a764000061161b60065486612aef565b1161188057600454936001600160a01b03604051966116398861272e565b1686526020860194855260408601818152611655368487612a48565b96606081019788526001600160a01b036080820195169182865261167882613303565b97885f5260096020526001600160a01b038060405f209451161673ffffffffffffffffffffffffffffffffffffffff198454161783555160018301555160028201556003810197519485519867ffffffffffffffff8a1161186c578989976116ec60209c6116e685546126f6565b85612d24565b8b90601f83116001146117b0576001600160a01b036117999b98957fd193dc4200996fcf9718f75816b40b8099d530ee06ff4accb44cc6b73039f8a398956117488661178b9e9d9a9785976004975f926117a4575b5050612b28565b90555b51169201911673ffffffffffffffffffffffffffffffffffffffff19825416179055600454968795604051948594855260608d8601526060850191612d73565b9060408301520390a3612dd6565b600455604051908152f35b90915001515f80611741565b90601f19839b9998979b1691845f52815f20925f5b81811061183b5750956117999c956001866001600160a01b039661178b9f9e9d9b989688966004987fd193dc4200996fcf9718f75816b40b8099d530ee06ff4accb44cc6b73039f8a39f9d10611823575b505050811b01905561174b565b01515f1960f88460031b161c191690555f8080611816565b938f91929395969798999b9d9a9c50600182918786015181550195019301908d9b999c9a98979695949392916117c5565b634e487b7160e01b5f52604160045260245ffd5b7f064a3ff8000000000000000000000000000000000000000000000000000000005f5260045ffd5b7f320c7a15000000000000000000000000000000000000000000000000000000005f5260045ffd5b5f80fd5b5f80fd5b610100600319360112611ef15760043560243590604435916118f86126c4565b926084359260a43567ffffffffffffffff8111611eed5761191d903690600401612879565b92909460c43567ffffffffffffffff8111611ee9576119409036906004016128b3565b9260e43567ffffffffffffffff8111611ee5576119619036906004016128b3565b949093865f52600960205260405f20996001600160a01b038b54169b8c15611ebd578a151580611eb4575b611e8c57878403611e64575f5f905b858210611df25750506001600160a01b0316809c8115159182611d63575b5050611d3b576119e28884878c858f8a908e6119da8f60035492369161291d565b973391612df8565b9a8b5f52600b60205260405f2060025481558960018201558d600282019073ffffffffffffffffffffffffffffffffffffffff19825416179055600381016001600160a01b03331673ffffffffffffffffffffffffffffffffffffffff198254161790558560058201558360088201556006810167ffffffffffffffff8c11611d2757611a798c611a7383546126f6565b83612d24565b5f8c601f8111600114611cc05780611a98925f91611cb5575b50612b28565b90555b8b6007820155600b810167ffffffffffffffff8611611ca1579182611ac2878c9495612bbb565b88905f5260205f20905f5b888110611c7b575050506004830173ffffffffffffffffffffffffffffffffffffffff1981541690555f6009840155600a830173ffffffffffffffffffffffffffffffffffffffff19815416905560025f910188600c8501928b89600e600d89019801965b818410611c0657505050505050505050600254986040519c8d5260208d0160e0905260e08d0190611b6292612d73565b9260408c015260608b015289820360808b0152611b7e92612d93565b87810360a08901528281527f07ffffffffffffffffffffffffffffffffffffffffffffffffffffffffffffff8311611c0257876020809987947f21d176aa881edcb9c47f6cebf7fe158492013ae7c7898a211b5ded66580601e994611bf79a8c9860051b80938684013760c084015201030190a4612dd6565b600255604051908152f35b5f80fd5b611c3184611c6392611c2b611c26836001600160a01b039760019b612cc1565b612ce5565b95612cc1565b358284165f52876020528060405f2055611c4d60065482613467565b8385165f528a60205260405f2055865490613467565b91165f528560205260405f20550189908b898e611b32565b8192939594506020611c8e600193612ce5565b9301928185015501908b93949291611acd565b634e487b7160e01b5f52604160045260245ffd5b90508601355f611a92565b601f191690825f528d60205f20925f5b818110611d0957508111611cef575b905060018092501b019055611a9b565b60f85f199160031b161c19908601351690558f808d611cdf565b9293602091925060018291868b013581550194019201908f91611cd0565b634e487b7160e01b5f52604160045260245ffd5b7f380b4009000000000000000000000000000000000000000000000000000000005f5260045ffd5b6004919250602090604051928380927f38d52e0f0000000000000000000000000000000000000000000000000000000082525afa8015611de7576001600160a01b03915f91611db8575b501614158d8d6119b9565b611dda915060203d602011611de0575b611dd2818361275e565b810190612cfd565b8f611dad565b503d611dc8565b6040513d5f823e3d90fd5b6bffffffffffffffffffffffff19611e13611e0e84898c612cc1565b612ce5565b9160601b166bffffffffffffffffffffffff198260601b161115611e3c5760019091019061199b565b7f84845e2d000000000000000000000000000000000000000000000000000000005f5260045ffd5b7fa24a13a6000000000000000000000000000000000000000000000000000000005f5260045ffd5b7f5b22d1a9000000000000000000000000000000000000000000000000000000005f5260045ffd5b50428b1061198c565b7fb0cfa447000000000000000000000000000000000000000000000000000000005f5260045ffd5b5f80fd5b5f80fd5b5f80fd5b5f80fd5b6040600319360112611f8b57611f09612690565b6001600160a01b03611f5b611f1c6126aa565b92335f52600c60205260405f208382165f5260205260405f2054928391335f52600c60205260405f208282165f526020525f60408120551693846133af565b6040519081527ffe3464cd748424446c37877c28ce5b700222c5bc9f90d908afcc4e5cb22707ff60203392a35f80f35b5f80fd5b602060031936011261212a57600435805f52600b60205260405f20906001600160a01b036003830154163303612102576001600160a01b036004830154166120da575f600b830192600c8101600d820191600e8101935b865481101561205457806001600160a01b03806120056001948b612aa6565b90549060031b1c16612017838b612aa6565b8382549160031b1b191690558181165f52856020525f60408120558181165f52866020525f6040812055165f52856020525f604081205501611fe6565b50845f52600b6020526120b1600b60405f205f81555f60018201555f60028201555f60038201555f60048201555f600582015561209360068201612b39565b5f60078201555f60088201555f60098201555f600a82015501612b92565b547fc119b2a9f2c0af908846721da7bfe8d805bf89852059096b41b6e1bfb808fd785f80a25f80f35b7f2217dcea000000000000000000000000000000000000000000000000000000005f5260045ffd5b7f30cd7471000000000000000000000000000000000000000000000000000000005f5260045ffd5b5f80fd5b3461214f575f60031936011261214b576020600454604051908152f35b5f80fd5b5f80fd5b3461219a575f6003193601126121965760206040516001600160a01b037f0000000000000000000000000000000000000000000000000000000000000000168152f35b5f80fd5b5f80fd5b3461227a576020600319360112612276576004355f52600b60205260405f2080546001820154916001600160a01b036002820154166001600160a01b03600383015416916001600160a01b036004820154169261225a600583015461220560068501612795565b906007850154966008860154946001600160a01b03600a600989015498015416976040519b8c9b8c5260208c015260408b015260608a0152608089015260a088015261016060c0880152610160870190612854565b9360e08601526101008501526101208401526101408301520390f35b5f80fd5b5f80fd5b60206003193601126122cb576001600160a01b0361229a612690565b6122a8825f54163314612c5c565b1673ffffffffffffffffffffffffffffffffffffffff1960075416176007555f80f35b5f80fd5b34612396576020600319360112612392576004355f52600a60205260405f2080546001820154916001600160a01b036002820154166001600160a01b036003830154169160048101549261237761232860058401612795565b6006840154956007850154936001600160a01b036009600888015497015416966040519a8b9a8b5260208b015260408a01526060890152608088015261014060a0880152610140870190612854565b9360c086015260e08501526101008401526101208301520390f35b5f80fd5b5f80fd5b346123f25760406003193601126123ee576123b3612690565b6001600160a01b036123c36126aa565b91165f52600c6020526001600160a01b0360405f2091165f52602052602060405f2054604051908152f35b5f80fd5b5f80fd5b34612420575f60031936011261241c5760206001600160a01b0360075416604051908152f35b5f80fd5b5f80fd5b602060031936011261268c5760043561243b613376565b805f52600a60205260405f209060028201906001600160a01b038254163303612664576001600160a01b0360038401541661263c57905f90600a8401936001600160a01b037f00000000000000000000000000000000000000000000000000000000000000001690600b8101600d600c83019201945b87548110156125fb576001600160a01b036124cc828a612aa6565b90549060031b1c16906040517f679d1197000000000000000000000000000000000000000000000000000000008152826004820152602081602481895afa9283156125f0576001936001600160a01b03925f916125c2575b5015612572575b612535838c612aa6565b8382549160031b1b191690558181165f52846020525f60408120558181165f52856020525f6040812055165f52866020525f6040812055016124b1565b8181165f52846020526125bd60405f20548383165f52876020526125b68a6125b18d60405f2054908888165f526020528760405f205493541694612aef565b612aef565b90836133af565b61252b565b6125e3915060203d81116125e9575b6125db818361275e565b810190612acf565b8c612524565b503d6125d1565b6040513d5f823e3d90fd5b86805f52600a60205261261060405f20612c0f565b7fa8192679f2a98ef0f7c48a03dd5d944c563888af9eb9c9da2f8932a2d84afa235f80a2600180555f80f35b7f2217dcea000000000000000000000000000000000000000000000000000000005f5260045ffd5b7f30cd7471000000000000000000000000000000000000000000000000000000005f5260045ffd5b5f80fd5b600435906001600160a01b03821682036126a657565b5f80fd5b602435906001600160a01b03821682036126c057565b5f80fd5b606435906001600160a01b03821682036126da57565b5f80fd5b35906001600160a01b03821682036126f257565b5f80fd5b90600182811c92168015612724575b602083101461271057565b634e487b7160e01b5f52602260045260245ffd5b91607f1691612705565b60a0810190811067ffffffffffffffff82111761274a57604052565b634e487b7160e01b5f52604160045260245ffd5b90601f601f19910116810190811067ffffffffffffffff82111761278157604052565b634e487b7160e01b5f52604160045260245ffd5b9060405191825f8254926127a8846126f6565b938484526001811690815f1461281457506001146127d0575b506127ce9250038361275e565b565b90505f9291925260205f20905f915b8183106127f85750509060206127ce928201015f6127c1565b60209193508060019154838589010152019101909184926127df565b602093506127ce9592507fffffffffffffffffffffffffffffffffffffffffffffffffffffffffffffff0091501682840152151560051b8201015f6127c1565b90601f19601f602080948051918291828752018686015e5f8582860101520116010190565b9181601f840112156128af5782359167ffffffffffffffff83116128ab57602083818601950101116128a757565b5f80fd5b5f80fd5b5f80fd5b9181601f840112156128ec5782359167ffffffffffffffff83116128e8576020808501948460051b0101116128e457565b5f80fd5b5f80fd5b5f80fd5b67ffffffffffffffff81116129095760209060051b0190565b634e487b7160e01b5f52604160045260245ffd5b929190612929816128f0565b93612937604051958661275e565b602085838152019160051b810192831161296a57905b82821061295957505050565b60208091833581520191019061294d565b5f80fd5b34612a4457610100600319360112612a405760043560243590604435906001600160a01b0382168203612a3c576064356084359060a43567ffffffffffffffff8111612a38576129c2903690600401612879565b9060c43567ffffffffffffffff8111612a34576129e39036906004016128b3565b94909360e4359767ffffffffffffffff8911612a30573660238a011215612a2c57602099612a1e612a249a369060248160040135910161291d565b98612df8565b604051908152f35b5f80fd5b5f80fd5b5f80fd5b5f80fd5b5f80fd5b5f80fd5b5f80fd5b92919267ffffffffffffffff8211612a925760405191612a726020601f19601f840116018461275e565b829481845281830111612a8e578281602093845f960137010152565b5f80fd5b634e487b7160e01b5f52604160045260245ffd5b8054821015612abb575f5260205f2001905f90565b634e487b7160e01b5f52603260045260245ffd5b90816020910312612aeb57518015158103612ae75790565b5f80fd5b5f80fd5b91908201809211612afc57565b634e487b7160e01b5f52601160045260245ffd5b5b818110612b1c575050565b6001905f815501612b11565b5f198260011b9260031b1c19161790565b612b4381546126f6565b9081612b4e575b5050565b81601f5f9311600114612b655750555b5f80612b4a565b612b82908284526001601f60208620920160051c82019101612b10565b8082528160208120915555612b5e565b80545f825580612ba1575b5050565b612bb4915f5260205f2090810190612b10565b5f80612b9d565b90680100000000000000008111612bfb57815490808355818110612bdf575b505050565b612bf3925f5260205f209182019101612b10565b5f8080612bda565b634e487b7160e01b5f52604160045260245ffd5b600a612c5a915f81555f60018201555f60028201555f60038201555f6004820155612c3c60058201612b39565b5f60068201555f60078201555f60088201555f600982015501612b92565b565b15612c6357565b60646040517f08c379a000000000000000000000000000000000000000000000000000000000815260206004820152600c60248201527f554e415554484f52495a454400000000000000000000000000000000000000006044820152fd5b9190811015612cd15760051b0190565b634e487b7160e01b5f52603260045260245ffd5b356001600160a01b0381168103612cf95790565b5f80fd5b90816020910312612d2057516001600160a01b0381168103612d1c5790565b5f80fd5b5f80fd5b9190601f8111612d34575b505050565b612d5e925f5260205f20906020601f840160051c83019310612d66575b601f0160051c0190612b10565b5f8080612d2f565b9150601f81929050612d51565b601f8260209493601f1993818652868601375f8582860101520116010190565b916020908281520191905f5b818110612dac5750505090565b9091926020806001926001600160a01b03612dc6886126de565b1681520194019101919091612d9f565b5f198114612de45760010190565b634e487b7160e01b5f52601160045260245ffd5b98948692989460b4949792976bffffffffffffffffffffffff196040519b8c9a60208c019e8f5260408c015260601b1660608a015260748901526094880152838701378401015f815293905f5b818110612e995750505060208151939101925f5b818110612e7b575050612e75925003601f19810183528261275e565b51902090565b91600191935060208091865181520194019101918492939193612e59565b91935091936020806001926001600160a01b03612eb5886126de565b16815201940191019185939492612e45565b90612ed1826128f0565b612ede604051918261275e565b828152601f19612eee82946128f0565b0190602036910137565b8051821015612f0c5760209160051b010190565b634e487b7160e01b5f52603260045260245ffd5b90602080835192838152019201905f5b818110612f3d5750505090565b909192602080600192865181520194019101919091612f30565b949290945f52600960205260405f20915f1461313757845f52600a60205260405f2093600885015442116130f557612f9a91612f94913691612a48565b856136d7565b6001600160a01b03806004840154169116036130cd576001600160a01b0390939293541692612fdd60038201946001600160a01b038654166004840154916133af565b5f90600a8101600b820191600c810193600d8201956009600284019301915b84548110156130ae57806001600160a01b038b61306782806130206001978c612aa6565b90549060031b1c169254168383165f528a60205260405f20548484165f528c6020528d60405f2054908686165f5260205260405f205490868c541692878c54169487613798565b6130718389612aa6565b8382549160031b1b191690558181165f52886020525f60408120558181165f52896020525f6040812055165f52886020525f604081205501612ffc565b5097505050505050505b5f52600a6020526130cb60405f20612c0f565b565b7f446e0961000000000000000000000000000000000000000000000000000000005f5260045ffd5b5050916001600160a01b0361312292949354169060046001600160a01b03600283015416910154916133af565b5f52600a60205261313560405f20612c0f565b565b845f95949552600b60205260405f2094600986015442116132c25761316791613161913691612a48565b846136d7565b6001600160a01b038060048401541691160361329a576001600160a01b039054166131a660038501916001600160a01b038354166005870154916133af565b5f90600b8501600c860191600d870193600e880195600a60048a019901915b845481101561328c57806001600160a01b03866132458a8a8f8e866131ff89826131f160019d8b612aa6565b90549060031b1c1698612aa6565b90549060031b1c1693878d5416938888165f5260205260405f2054908888165f5260205260405f2054918888165f526020528760405f205493541693888d541695613798565b61324f8389612aa6565b8382549160031b1b191690558181165f52886020525f60408120558181165f52896020525f6040812055165f52886020525f6040812055016131c5565b5097505050505050506130b8565b7f446e0961000000000000000000000000000000000000000000000000000000005f5260045ffd5b5050926001600160a01b036132ee929454169060056001600160a01b03600483015416910154916133af565b5f52600a60205261330160405f20612c0f565b565b604051613370816020810193602085526001600160a01b03815116604083015260208101516060830152604081015160808301526001600160a01b036080613359606084015160a08087015260e0860190612854565b9201511660c083015203601f19810183528261275e565b51902090565b600260015414613387576002600155565b7f3ee5aeb5000000000000000000000000000000000000000000000000000000005f5260045ffd5b5f91826044926020956001600160a01b03604051947fa9059cbb00000000000000000000000000000000000000000000000000000000865216600485015260248401525af13d15601f3d1160015f51141617161561340957565b60646040517f08c379a000000000000000000000000000000000000000000000000000000000815260206004820152600f60248201527f5452414e534645525f4641494c454400000000000000000000000000000000006044820152fd5b90805f19048211810215670de0b6b3a7640000021561348f57670de0b6b3a764000091020490565b5f80fd5b6001600160a01b031680155f146134b55750906134b2929130916138ff565b5b565b916001600160a01b031691604051917f70a08231000000000000000000000000000000000000000000000000000000008352306004840152602083602481875afa9283156136cc575f93613681575b506001600160a01b0360646020925f60405195869485937fb460af940000000000000000000000000000000000000000000000000000000085528b60048601523060248601521660448401525af1801561367657613636575b506020602492604051938480927f70a082310000000000000000000000000000000000000000000000000000000082523060048301525afa91821561362b575f926135ef575b5081039081116135db5710156134b3577fa4372937000000000000000000000000000000000000000000000000000000005f5260045ffd5b634e487b7160e01b5f52601160045260245ffd5b9091506020813d60201161361f575b8161360b6020938361275e565b8101031261361b5751905f6135a3565b5f80fd5b602091503d91506135fe565b6040513d5f823e3d90fd5b6020813d60201161366a575b8161364f6020938361275e565b81010312613666576024926020915150925061355d565b5f80fd5b602091503d9150613642565b6040513d5f823e3d90fd5b9092506020813d6020116136c0575b8161369d6020938361275e565b810103126136bc576001600160a01b0360646020925194925050613504565b5f80fd5b602091503d9150613690565b6040513d5f823e3d90fd5b9190600190604051935f52602081015160405260408151146137365760418151146137195750506020604060805f805b5afa505f6060523d6060185191604052565b60805f602093604084606082960151841a87520151606052613707565b60805f6020937f7fffffffffffffffffffffffffffffffffffffffffffffffffffffffffffffff604080950151601b8160ff1c01875216606052613707565b9160409194936001600160a01b0391826060860197168552602085015216910152565b9293836137c093976137bb888098999599846001600160a01b03600754166139bf565b6139bf565b6001600160a01b03604051917f679d119700000000000000000000000000000000000000000000000000000000835216908160048201526020816024816001600160a01b037f0000000000000000000000000000000000000000000000000000000000000000165afa9081156138f4575f916138c5575b505f146138b457803b156138b057613882935f8094604051968795869485937f6b1b863a00000000000000000000000000000000000000000000000000000000855260048501613775565b03925af180156138a557613895575b505b565b5f61389f9161275e565b5f613891565b6040513d5f823e3d90fd5b5f80fd5b6138c0939291506133af565b613893565b6138e7915060203d6020116138ed575b6138df818361275e565b810190612acf565b5f613837565b503d6138d5565b6040513d5f823e3d90fd5b905f6064926020956001600160a01b03839681604051967f23b872dd00000000000000000000000000000000000000000000000000000000885216600487015216602485015260448401525af13d15601f3d1160015f51141617161561396157565b60646040517f08c379a000000000000000000000000000000000000000000000000000000000815260206004820152601460248201527f5452414e534645525f46524f4d5f4641494c45440000000000000000000000006044820152fd5b9192906001600160a01b03604051917f679d119700000000000000000000000000000000000000000000000000000000835216908160048201526020816024816001600160a01b037f0000000000000000000000000000000000000000000000000000000000000000165afa908115613b18575f91613ae9575b505f14613ab657803b15613ab257613a84935f8094604051968795869485937f6b1b863a00000000000000000000000000000000000000000000000000000000855260048501613775565b03925af18015613aa757613a97575b505b565b5f613aa19161275e565b5f613a93565b6040513d5f823e3d90fd5b5f80fd5b916001600160a01b039150165f52600c60205260405f20905f52602052613ae260405f20918254612aef565b9055613a95565b613b0b915060203d602011613b11575b613b03818361275e565b810190612acf565b5f613a39565b503d613af9565b6040513d5f823e3d90fd","linkReferences":{}},"methodIdentifiers":{"POINTS_FACTORY()":"250b9ded","cancelAPOffer(bytes32)":"2ae297e2","cancelIPOffer(bytes32)":"05c21582","claim(bytes32,bytes32,bool,bytes)":"695aa12a","claimFees(address,address)":"2dbfa735","createAPOffer(bytes32,uint256,uint256,address,uint256,bytes,address[],uint256[])":"2dbfed34","createIPOffer(bytes32,uint256,bytes,uint256,uint256,address[],uint256[])":"89158eb0","createMarket(address,uint256,bytes,address)":"3989f799","feeClaimantToTokenToAmount(address,address)":"0cadba1a","fillAPOffer(bytes32,address)":"539ad07d","fillIPOffer(bytes32,address,address)":"c124d089","getAPOfferHash(uint256,bytes32,address,uint256,uint256,bytes,address[],uint256[])":"b4fc032a","getIPOfferHash(uint256,bytes32,address,uint256,uint256,bytes,address[],uint256[])":"514c6d63","getMarketHash((address,uint256,uint256,bytes,address))":"ade82341","marketHashToOffchainActionMarket(bytes32)":"b8ccb1d8","minimumFrontendFee()":"f3256c81","numAPOffers()":"80dd127a","numIPOffers()":"82ae91d1","numMarkets()":"26e04f9d","offerHashToAPOffer(bytes32)":"19c7e2c5","offerHashToIPOffer(bytes32)":"15a0c8bd","owner()":"8da5cb5b","protocolFee()":"b0e21e8a","protocolFeeClaimant()":"072fc961","setMinimumFrontendFee(uint256)":"fcd9664b","setOffersPaused(bool)":"ec1d465e","setProtocolFee(uint256)":"787dce3d","setProtocolFeeClaimant(address)":"15a2fdee","transferOwnership(address)":"f2fde38b"},"id":37}